{
  "_format": "hh-sol-artifact-1",
  "contractName": "MarketPlaceFactory",
  "sourceName": "contracts/MarketPlaceFactory.sol",
  "abi": [
    {
      "anonymous": false,
      "inputs": [
        {
          "indexed": false,
          "internalType": "address",
          "name": "retailer",
          "type": "address"
        },
        {
          "indexed": false,
          "internalType": "address",
          "name": "marketPlace",
          "type": "address"
        }
      ],
      "name": "MarketPlaceCreated",
      "type": "event"
    },
    {
      "inputs": [
        {
          "internalType": "string",
          "name": "_name",
          "type": "string"
        },
        {
          "internalType": "string",
          "name": "_description",
          "type": "string"
        }
      ],
      "name": "createMarketPlace",
      "outputs": [
        {
          "internalType": "address",
          "name": "",
          "type": "address"
        }
      ],
      "stateMutability": "nonpayable",
      "type": "function"
    },
    {
      "inputs": [],
      "name": "getMarketPlaceCount",
      "outputs": [
        {
          "internalType": "uint8",
          "name": "",
          "type": "uint8"
        }
      ],
      "stateMutability": "view",
      "type": "function"
    },
    {
      "inputs": [
        {
          "internalType": "address",
          "name": "_retailer",
          "type": "address"
        }
      ],
      "name": "getRetailerContract",
      "outputs": [
        {
          "internalType": "address",
          "name": "",
          "type": "address"
        }
      ],
      "stateMutability": "view",
      "type": "function"
    },
    {
      "inputs": [
        {
          "internalType": "address",
          "name": "_retailer",
          "type": "address"
        }
      ],
      "name": "isRetailer",
      "outputs": [
        {
          "internalType": "bool",
          "name": "",
          "type": "bool"
        }
      ],
      "stateMutability": "view",
      "type": "function"
    }
  ],
  "bytecode": "0x608060405234801561001057600080fd5b506134d4806100206000396000f3fe60806040523480156200001157600080fd5b5060043610620000525760003560e01c8063425cb09314620000575780635da09b88146200008d578063626598b514620000c3578063abc9d75414620000f9575b600080fd5b6200007560048036038101906200006f91906200054a565b6200011b565b6040516200008491906200058d565b60405180910390f35b620000ab6004803603810190620000a591906200054a565b62000213565b604051620000ba9190620005c7565b60405180910390f35b620000e16004803603810190620000db919062000746565b62000269565b604051620000f091906200058d565b60405180910390f35b62000103620004b7565b604051620001129190620007e9565b60405180910390f35b6000600160008373ffffffffffffffffffffffffffffffffffffffff1673ffffffffffffffffffffffffffffffffffffffff16815260200190815260200160002060009054906101000a900460ff16620001ac576040517f08c379a0000000000000000000000000000000000000000000000000000000008152600401620001a39062000867565b60405180910390fd5b600260008373ffffffffffffffffffffffffffffffffffffffff1673ffffffffffffffffffffffffffffffffffffffff16815260200190815260200160002060009054906101000a900473ffffffffffffffffffffffffffffffffffffffff169050919050565b6000600160008373ffffffffffffffffffffffffffffffffffffffff1673ffffffffffffffffffffffffffffffffffffffff16815260200190815260200160002060009054906101000a900460ff169050919050565b6000600160003373ffffffffffffffffffffffffffffffffffffffff1673ffffffffffffffffffffffffffffffffffffffff16815260200190815260200160002060009054906101000a900460ff1615620002fb576040517f08c379a0000000000000000000000000000000000000000000000000000000008152600401620002f290620008d9565b60405180910390fd5b60018060003373ffffffffffffffffffffffffffffffffffffffff1673ffffffffffffffffffffffffffffffffffffffff16815260200190815260200160002060006101000a81548160ff021916908315150217905550600083836040516200036490620004c3565b6200037192919062000973565b604051809103906000f0801580156200038e573d6000803e3d6000fd5b5090506000819080600181540180825580915050600190039060005260206000200160009091909190916101000a81548173ffffffffffffffffffffffffffffffffffffffff021916908373ffffffffffffffffffffffffffffffffffffffff16021790555080600260003373ffffffffffffffffffffffffffffffffffffffff1673ffffffffffffffffffffffffffffffffffffffff16815260200190815260200160002060006101000a81548173ffffffffffffffffffffffffffffffffffffffff021916908373ffffffffffffffffffffffffffffffffffffffff1602179055507fb1ae1b273fd44c9432ebfae882799eab6d16b1363db17cc6b819cb453c5a2fc73382604051620004a5929190620009ae565b60405180910390a18091505092915050565b60008080549050905090565b612ac380620009dc83390190565b6000604051905090565b600080fd5b600080fd5b600073ffffffffffffffffffffffffffffffffffffffff82169050919050565b60006200051282620004e5565b9050919050565b620005248162000505565b81146200053057600080fd5b50565b600081359050620005448162000519565b92915050565b600060208284031215620005635762000562620004db565b5b6000620005738482850162000533565b91505092915050565b620005878162000505565b82525050565b6000602082019050620005a460008301846200057c565b92915050565b60008115159050919050565b620005c181620005aa565b82525050565b6000602082019050620005de6000830184620005b6565b92915050565b600080fd5b600080fd5b6000601f19601f8301169050919050565b7f4e487b7100000000000000000000000000000000000000000000000000000000600052604160045260246000fd5b6200063982620005ee565b810181811067ffffffffffffffff821117156200065b576200065a620005ff565b5b80604052505050565b600062000670620004d1565b90506200067e82826200062e565b919050565b600067ffffffffffffffff821115620006a157620006a0620005ff565b5b620006ac82620005ee565b9050602081019050919050565b82818337600083830152505050565b6000620006df620006d98462000683565b62000664565b905082815260208101848484011115620006fe57620006fd620005e9565b5b6200070b848285620006b9565b509392505050565b600082601f8301126200072b576200072a620005e4565b5b81356200073d848260208601620006c8565b91505092915050565b6000806040838503121562000760576200075f620004db565b5b600083013567ffffffffffffffff811115620007815762000780620004e0565b5b6200078f8582860162000713565b925050602083013567ffffffffffffffff811115620007b357620007b2620004e0565b5b620007c18582860162000713565b9150509250929050565b600060ff82169050919050565b620007e381620007cb565b82525050565b6000602082019050620008006000830184620007d8565b92915050565b600082825260208201905092915050565b7f52657461696c6572206e6f742061646465640000000000000000000000000000600082015250565b60006200084f60128362000806565b91506200085c8262000817565b602082019050919050565b60006020820190508181036000830152620008828162000840565b9050919050565b7f52657461696c657220616c726561647920616464656400000000000000000000600082015250565b6000620008c160168362000806565b9150620008ce8262000889565b602082019050919050565b60006020820190508181036000830152620008f481620008b2565b9050919050565b600081519050919050565b60005b838110156200092657808201518184015260208101905062000909565b60008484015250505050565b60006200093f82620008fb565b6200094b818562000806565b93506200095d81856020860162000906565b6200096881620005ee565b840191505092915050565b600060408201905081810360008301526200098f818562000932565b90508181036020830152620009a5818462000932565b90509392505050565b6000604082019050620009c560008301856200057c565b620009d460208301846200057c565b939250505056fe60806040523480156200001157600080fd5b5060405162002ac338038062002ac3833981810160405281019062000037919062000342565b33600073ffffffffffffffffffffffffffffffffffffffff168173ffffffffffffffffffffffffffffffffffffffff1603620000ad5760006040517f1e4fbdf7000000000000000000000000000000000000000000000000000000008152600401620000a491906200040c565b60405180910390fd5b620000be81620000eb60201b60201c565b508160029081620000d0919062000674565b508060039081620000e2919062000674565b5050506200075b565b60008060009054906101000a900473ffffffffffffffffffffffffffffffffffffffff169050816000806101000a81548173ffffffffffffffffffffffffffffffffffffffff021916908373ffffffffffffffffffffffffffffffffffffffff1602179055508173ffffffffffffffffffffffffffffffffffffffff168173ffffffffffffffffffffffffffffffffffffffff167f8be0079c531659141344cd1fd0a4f28419497f9722a3daafe3b4186f6b6457e060405160405180910390a35050565b6000604051905090565b600080fd5b600080fd5b600080fd5b600080fd5b6000601f19601f8301169050919050565b7f4e487b7100000000000000000000000000000000000000000000000000000000600052604160045260246000fd5b6200021882620001cd565b810181811067ffffffffffffffff821117156200023a5762000239620001de565b5b80604052505050565b60006200024f620001af565b90506200025d82826200020d565b919050565b600067ffffffffffffffff82111562000280576200027f620001de565b5b6200028b82620001cd565b9050602081019050919050565b60005b83811015620002b85780820151818401526020810190506200029b565b60008484015250505050565b6000620002db620002d58462000262565b62000243565b905082815260208101848484011115620002fa57620002f9620001c8565b5b6200030784828562000298565b509392505050565b600082601f830112620003275762000326620001c3565b5b815162000339848260208601620002c4565b91505092915050565b600080604083850312156200035c576200035b620001b9565b5b600083015167ffffffffffffffff8111156200037d576200037c620001be565b5b6200038b858286016200030f565b925050602083015167ffffffffffffffff811115620003af57620003ae620001be565b5b620003bd858286016200030f565b9150509250929050565b600073ffffffffffffffffffffffffffffffffffffffff82169050919050565b6000620003f482620003c7565b9050919050565b6200040681620003e7565b82525050565b6000602082019050620004236000830184620003fb565b92915050565b600081519050919050565b7f4e487b7100000000000000000000000000000000000000000000000000000000600052602260045260246000fd5b600060028204905060018216806200047c57607f821691505b60208210810362000492576200049162000434565b5b50919050565b60008190508160005260206000209050919050565b60006020601f8301049050919050565b600082821b905092915050565b600060088302620004fc7fffffffffffffffffffffffffffffffffffffffffffffffffffffffffffffffff82620004bd565b620005088683620004bd565b95508019841693508086168417925050509392505050565b6000819050919050565b6000819050919050565b6000620005556200054f620005498462000520565b6200052a565b62000520565b9050919050565b6000819050919050565b620005718362000534565b6200058962000580826200055c565b848454620004ca565b825550505050565b600090565b620005a062000591565b620005ad81848462000566565b505050565b5b81811015620005d557620005c960008262000596565b600181019050620005b3565b5050565b601f8211156200062457620005ee8162000498565b620005f984620004ad565b8101602085101562000609578190505b620006216200061885620004ad565b830182620005b2565b50505b505050565b600082821c905092915050565b6000620006496000198460080262000629565b1980831691505092915050565b600062000664838362000636565b9150826002028217905092915050565b6200067f8262000429565b67ffffffffffffffff8111156200069b576200069a620001de565b5b620006a7825462000463565b620006b4828285620005d9565b600060209050601f831160018114620006ec5760008415620006d7578287015190505b620006e3858262000656565b86555062000753565b601f198416620006fc8662000498565b60005b828110156200072657848901518255600182019150602085019450602081019050620006ff565b8683101562000746578489015162000742601f89168262000636565b8355505b6001600288020188555050505b505050505050565b612358806200076b6000396000f3fe60806040526004361061009c5760003560e01c8063b9db15b411610064578063b9db15b414610153578063c29b2f2014610190578063dbae7ba3146101bb578063ed90c7b7146101e6578063f18f8b6d1461020f578063f2fde38b146102385761009c565b80636daf0fbb146100a1578063715018a6146100ca5780638642269e146100e15780638da5cb5b146100fd5780638ef291e914610128575b600080fd5b3480156100ad57600080fd5b506100c860048036038101906100c391906114cf565b610261565b005b3480156100d657600080fd5b506100df6104b2565b005b6100fb60048036038101906100f6919061159e565b6104c6565b005b34801561010957600080fd5b506101126106a2565b60405161011f919061160c565b60405180910390f35b34801561013457600080fd5b5061013d6106cb565b60405161014a91906116a6565b60405180910390f35b34801561015f57600080fd5b5061017a6004803603810190610175919061159e565b610759565b60405161018791906117b8565b60405180910390f35b34801561019c57600080fd5b506101a56109bd565b6040516101b29190611933565b60405180910390f35b3480156101c757600080fd5b506101d0610bf0565b6040516101dd91906116a6565b60405180910390f35b3480156101f257600080fd5b5061020d6004803603810190610208919061159e565b610c7e565b005b34801561021b57600080fd5b5061023660048036038101906102319190611955565b610dfb565b005b34801561024457600080fd5b5061025f600480360381019061025a9190611a62565b6110d3565b005b60008551116102a5576040517f08c379a000000000000000000000000000000000000000000000000000000000815260040161029c90611adb565b60405180910390fd5b600083116102e8576040517f08c379a00000000000000000000000000000000000000000000000000000000081526004016102df90611b47565b60405180910390fd5b600084511161032c576040517f08c379a000000000000000000000000000000000000000000000000000000000815260040161032390611bb3565b60405180910390fd5b6000821161036f576040517f08c379a000000000000000000000000000000000000000000000000000000000815260040161036690611c1f565b60405180910390fd5b60008151116103b3576040517f08c379a00000000000000000000000000000000000000000000000000000000081526004016103aa90611c8b565b60405180910390fd5b60016040518060c001604052808781526020018681526020018581526020018481526020018381526020016000815250908060018154018082558091505060019003906000526020600020906006020160009091909190915060008201518160000190816104219190611eb7565b5060208201518160010190816104379190611eb7565b50604082015181600201556060820151816003015560808201518160040190816104619190611eb7565b5060a0820151816005015550507fb15f1a0c5e066bde8b65355e8ff33b3e6ff200229ec7b92aacb6bc2dc0f7ff9b858484846040516104a39493929190611f98565b60405180910390a15050505050565b6104ba611159565b6104c460006111e0565b565b600081101580156104db575060018054905081105b61051a576040517f08c379a000000000000000000000000000000000000000000000000000000000815260040161051190612037565b60405180910390fd5b6000600182815481106105305761052f612057565b5b90600052602060002090600602016003015411610582576040517f08c379a0000000000000000000000000000000000000000000000000000000008152600401610579906120d2565b60405180910390fd5b6001818154811061059657610595612057565b5b9060005260206000209060060201600201543410156105ea576040517f08c379a00000000000000000000000000000000000000000000000000000000081526004016105e19061213e565b60405180910390fd5b60006105f46106a2565b90508073ffffffffffffffffffffffffffffffffffffffff166108fc6001848154811061062457610623612057565b5b9060005260206000209060060201600201549081150290604051600060405180830381858888f19350505050158015610661573d6000803e3d6000fd5b50600180838154811061067757610676612057565b5b90600052602060002090600602016005016000828254610697919061218d565b925050819055505050565b60008060009054906101000a900473ffffffffffffffffffffffffffffffffffffffff16905090565b600280546106d890611cda565b80601f016020809104026020016040519081016040528092919081815260200182805461070490611cda565b80156107515780601f1061072657610100808354040283529160200191610751565b820191906000526020600020905b81548152906001019060200180831161073457829003601f168201915b505050505081565b6107616112ac565b60008210158015610776575060018054905082105b6107b5576040517f08c379a00000000000000000000000000000000000000000000000000000000081526004016107ac90612037565b60405180910390fd5b600182815481106107c9576107c8612057565b5b90600052602060002090600602016040518060c00160405290816000820180546107f290611cda565b80601f016020809104026020016040519081016040528092919081815260200182805461081e90611cda565b801561086b5780601f106108405761010080835404028352916020019161086b565b820191906000526020600020905b81548152906001019060200180831161084e57829003601f168201915b5050505050815260200160018201805461088490611cda565b80601f01602080910402602001604051908101604052809291908181526020018280546108b090611cda565b80156108fd5780601f106108d2576101008083540402835291602001916108fd565b820191906000526020600020905b8154815290600101906020018083116108e057829003601f168201915b50505050508152602001600282015481526020016003820154815260200160048201805461092a90611cda565b80601f016020809104026020016040519081016040528092919081815260200182805461095690611cda565b80156109a35780601f10610978576101008083540402835291602001916109a3565b820191906000526020600020905b81548152906001019060200180831161098657829003601f168201915b505050505081526020016005820154815250509050919050565b60606001805480602002602001604051908101604052809291908181526020016000905b82821015610be757838290600052602060002090600602016040518060c0016040529081600082018054610a1490611cda565b80601f0160208091040260200160405190810160405280929190818152602001828054610a4090611cda565b8015610a8d5780601f10610a6257610100808354040283529160200191610a8d565b820191906000526020600020905b815481529060010190602001808311610a7057829003601f168201915b50505050508152602001600182018054610aa690611cda565b80601f0160208091040260200160405190810160405280929190818152602001828054610ad290611cda565b8015610b1f5780601f10610af457610100808354040283529160200191610b1f565b820191906000526020600020905b815481529060010190602001808311610b0257829003601f168201915b505050505081526020016002820154815260200160038201548152602001600482018054610b4c90611cda565b80601f0160208091040260200160405190810160405280929190818152602001828054610b7890611cda565b8015610bc55780601f10610b9a57610100808354040283529160200191610bc5565b820191906000526020600020905b815481529060010190602001808311610ba857829003601f168201915b50505050508152602001600582015481525050815260200190600101906109e1565b50505050905090565b60038054610bfd90611cda565b80601f0160208091040260200160405190810160405280929190818152602001828054610c2990611cda565b8015610c765780601f10610c4b57610100808354040283529160200191610c76565b820191906000526020600020905b815481529060010190602001808311610c5957829003601f168201915b505050505081565b60008110158015610c93575060018054905081105b610cd2576040517f08c379a0000000000000000000000000000000000000000000000000000000008152600401610cc990612037565b60405180910390fd5b6001808080549050610ce491906121c1565b81548110610cf557610cf4612057565b5b906000526020600020906006020160018281548110610d1757610d16612057565b5b906000526020600020906006020160008201816000019081610d39919061220b565b5060018201816001019081610d4e919061220b565b50600282015481600201556003820154816003015560048201816004019081610d77919061220b565b50600582015481600501559050506001805480610d9757610d966122f3565b5b600190038181906000526020600020906006020160008082016000610dbc91906112e2565b600182016000610dcc91906112e2565b60028201600090556003820160009055600482016000610dec91906112e2565b60058201600090555050905550565b60008610158015610e10575060018054905086105b610e4f576040517f08c379a0000000000000000000000000000000000000000000000000000000008152600401610e4690612037565b60405180910390fd5b6000855111610e93576040517f08c379a0000000000000000000000000000000000000000000000000000000008152600401610e8a90611adb565b60405180910390fd5b6000845111610ed7576040517f08c379a0000000000000000000000000000000000000000000000000000000008152600401610ece90611bb3565b60405180910390fd5b60008311610f1a576040517f08c379a0000000000000000000000000000000000000000000000000000000008152600401610f1190611b47565b60405180910390fd5b60008211610f5d576040517f08c379a0000000000000000000000000000000000000000000000000000000008152600401610f5490611c1f565b60405180910390fd5b6000815111610fa1576040517f08c379a0000000000000000000000000000000000000000000000000000000008152600401610f9890611c8b565b60405180910390fd5b8460018781548110610fb657610fb5612057565b5b90600052602060002090600602016000019081610fd39190611eb7565b508260018781548110610fe957610fe8612057565b5b906000526020600020906006020160020181905550836001878154811061101357611012612057565b5b906000526020600020906006020160010190816110309190611eb7565b50816001878154811061104657611045612057565b5b90600052602060002090600602016003018190555080600187815481106110705761106f612057565b5b9060005260206000209060060201600401908161108d9190611eb7565b507fce753a1b28da9faff021b064037bbe0e890d403dce67f253977168d34327235c858484846040516110c39493929190611f98565b60405180910390a1505050505050565b6110db611159565b600073ffffffffffffffffffffffffffffffffffffffff168173ffffffffffffffffffffffffffffffffffffffff160361114d5760006040517f1e4fbdf7000000000000000000000000000000000000000000000000000000008152600401611144919061160c565b60405180910390fd5b611156816111e0565b50565b6111616112a4565b73ffffffffffffffffffffffffffffffffffffffff1661117f6106a2565b73ffffffffffffffffffffffffffffffffffffffff16146111de576111a26112a4565b6040517f118cdaa70000000000000000000000000000000000000000000000000000000081526004016111d5919061160c565b60405180910390fd5b565b60008060009054906101000a900473ffffffffffffffffffffffffffffffffffffffff169050816000806101000a81548173ffffffffffffffffffffffffffffffffffffffff021916908373ffffffffffffffffffffffffffffffffffffffff1602179055508173ffffffffffffffffffffffffffffffffffffffff168173ffffffffffffffffffffffffffffffffffffffff167f8be0079c531659141344cd1fd0a4f28419497f9722a3daafe3b4186f6b6457e060405160405180910390a35050565b600033905090565b6040518060c001604052806060815260200160608152602001600081526020016000815260200160608152602001600081525090565b5080546112ee90611cda565b6000825580601f10611300575061131f565b601f01602090049060005260206000209081019061131e9190611322565b5b50565b5b8082111561133b576000816000905550600101611323565b5090565b6000604051905090565b600080fd5b600080fd5b600080fd5b600080fd5b6000601f19601f8301169050919050565b7f4e487b7100000000000000000000000000000000000000000000000000000000600052604160045260246000fd5b6113a68261135d565b810181811067ffffffffffffffff821117156113c5576113c461136e565b5b80604052505050565b60006113d861133f565b90506113e4828261139d565b919050565b600067ffffffffffffffff8211156114045761140361136e565b5b61140d8261135d565b9050602081019050919050565b82818337600083830152505050565b600061143c611437846113e9565b6113ce565b90508281526020810184848401111561145857611457611358565b5b61146384828561141a565b509392505050565b600082601f8301126114805761147f611353565b5b8135611490848260208601611429565b91505092915050565b6000819050919050565b6114ac81611499565b81146114b757600080fd5b50565b6000813590506114c9816114a3565b92915050565b600080600080600060a086880312156114eb576114ea611349565b5b600086013567ffffffffffffffff8111156115095761150861134e565b5b6115158882890161146b565b955050602086013567ffffffffffffffff8111156115365761153561134e565b5b6115428882890161146b565b9450506040611553888289016114ba565b9350506060611564888289016114ba565b925050608086013567ffffffffffffffff8111156115855761158461134e565b5b6115918882890161146b565b9150509295509295909350565b6000602082840312156115b4576115b3611349565b5b60006115c2848285016114ba565b91505092915050565b600073ffffffffffffffffffffffffffffffffffffffff82169050919050565b60006115f6826115cb565b9050919050565b611606816115eb565b82525050565b600060208201905061162160008301846115fd565b92915050565b600081519050919050565b600082825260208201905092915050565b60005b83811015611661578082015181840152602081019050611646565b60008484015250505050565b600061167882611627565b6116828185611632565b9350611692818560208601611643565b61169b8161135d565b840191505092915050565b600060208201905081810360008301526116c0818461166d565b905092915050565b600082825260208201905092915050565b60006116e482611627565b6116ee81856116c8565b93506116fe818560208601611643565b6117078161135d565b840191505092915050565b61171b81611499565b82525050565b600060c083016000830151848203600086015261173e82826116d9565b9150506020830151848203602086015261175882826116d9565b915050604083015161176d6040860182611712565b5060608301516117806060860182611712565b506080830151848203608086015261179882826116d9565b91505060a08301516117ad60a0860182611712565b508091505092915050565b600060208201905081810360008301526117d28184611721565b905092915050565b600081519050919050565b600082825260208201905092915050565b6000819050602082019050919050565b600060c083016000830151848203600086015261182382826116d9565b9150506020830151848203602086015261183d82826116d9565b91505060408301516118526040860182611712565b5060608301516118656060860182611712565b506080830151848203608086015261187d82826116d9565b91505060a083015161189260a0860182611712565b508091505092915050565b60006118a98383611806565b905092915050565b6000602082019050919050565b60006118c9826117da565b6118d381856117e5565b9350836020820285016118e5856117f6565b8060005b858110156119215784840389528151611902858261189d565b945061190d836118b1565b925060208a019950506001810190506118e9565b50829750879550505050505092915050565b6000602082019050818103600083015261194d81846118be565b905092915050565b60008060008060008060c0878903121561197257611971611349565b5b600061198089828a016114ba565b965050602087013567ffffffffffffffff8111156119a1576119a061134e565b5b6119ad89828a0161146b565b955050604087013567ffffffffffffffff8111156119ce576119cd61134e565b5b6119da89828a0161146b565b94505060606119eb89828a016114ba565b93505060806119fc89828a016114ba565b92505060a087013567ffffffffffffffff811115611a1d57611a1c61134e565b5b611a2989828a0161146b565b9150509295509295509295565b611a3f816115eb565b8114611a4a57600080fd5b50565b600081359050611a5c81611a36565b92915050565b600060208284031215611a7857611a77611349565b5b6000611a8684828501611a4d565b91505092915050565b7f4e616d6520726571756972656400000000000000000000000000000000000000600082015250565b6000611ac5600d83611632565b9150611ad082611a8f565b602082019050919050565b60006020820190508181036000830152611af481611ab8565b9050919050565b7f5072696365207265717569726564000000000000000000000000000000000000600082015250565b6000611b31600e83611632565b9150611b3c82611afb565b602082019050919050565b60006020820190508181036000830152611b6081611b24565b9050919050565b7f4465736372697074696f6e207265717569726564000000000000000000000000600082015250565b6000611b9d601483611632565b9150611ba882611b67565b602082019050919050565b60006020820190508181036000830152611bcc81611b90565b9050919050565b7f5175616e74697479207265717569726564000000000000000000000000000000600082015250565b6000611c09601183611632565b9150611c1482611bd3565b602082019050919050565b60006020820190508181036000830152611c3881611bfc565b9050919050565b7f49504653204c696e6b2072657175697265640000000000000000000000000000600082015250565b6000611c75601283611632565b9150611c8082611c3f565b602082019050919050565b60006020820190508181036000830152611ca481611c68565b9050919050565b7f4e487b7100000000000000000000000000000000000000000000000000000000600052602260045260246000fd5b60006002820490506001821680611cf257607f821691505b602082108103611d0557611d04611cab565b5b50919050565b60008190508160005260206000209050919050565b60006020601f8301049050919050565b600082821b905092915050565b600060088302611d6d7fffffffffffffffffffffffffffffffffffffffffffffffffffffffffffffffff82611d30565b611d778683611d30565b95508019841693508086168417925050509392505050565b6000819050919050565b6000611db4611daf611daa84611499565b611d8f565b611499565b9050919050565b6000819050919050565b611dce83611d99565b611de2611dda82611dbb565b848454611d3d565b825550505050565b600090565b611df7611dea565b611e02818484611dc5565b505050565b5b81811015611e2657611e1b600082611def565b600181019050611e08565b5050565b601f821115611e6b57611e3c81611d0b565b611e4584611d20565b81016020851015611e54578190505b611e68611e6085611d20565b830182611e07565b50505b505050565b600082821c905092915050565b6000611e8e60001984600802611e70565b1980831691505092915050565b6000611ea78383611e7d565b9150826002028217905092915050565b611ec082611627565b67ffffffffffffffff811115611ed957611ed861136e565b5b611ee38254611cda565b611eee828285611e2a565b600060209050601f831160018114611f215760008415611f0f578287015190505b611f198582611e9b565b865550611f81565b601f198416611f2f86611d0b565b60005b82811015611f5757848901518255600182019150602085019450602081019050611f32565b86831015611f745784890151611f70601f891682611e7d565b8355505b6001600288020188555050505b505050505050565b611f9281611499565b82525050565b60006080820190508181036000830152611fb2818761166d565b9050611fc16020830186611f89565b611fce6040830185611f89565b8181036060830152611fe0818461166d565b905095945050505050565b7f496e76616c69642070726f647563742069640000000000000000000000000000600082015250565b6000612021601283611632565b915061202c82611feb565b602082019050919050565b6000602082019050818103600083015261205081612014565b9050919050565b7f4e487b7100000000000000000000000000000000000000000000000000000000600052603260045260246000fd5b7f50726f64756374206f7574206f662073746f636b000000000000000000000000600082015250565b60006120bc601483611632565b91506120c782612086565b602082019050919050565b600060208201905081810360008301526120eb816120af565b9050919050565b7f496e73756666696369656e742066756e64730000000000000000000000000000600082015250565b6000612128601283611632565b9150612133826120f2565b602082019050919050565b600060208201905081810360008301526121578161211b565b9050919050565b7f4e487b7100000000000000000000000000000000000000000000000000000000600052601160045260246000fd5b600061219882611499565b91506121a383611499565b92508282019050808211156121bb576121ba61215e565b5b92915050565b60006121cc82611499565b91506121d783611499565b92508282039050818111156121ef576121ee61215e565b5b92915050565b60008154905061220481611cda565b9050919050565b8181036122195750506122f1565b612222826121f5565b67ffffffffffffffff81111561223b5761223a61136e565b5b6122458254611cda565b612250828285611e2a565b6000601f83116001811461227f576000841561226d578287015490505b6122778582611e9b565b8655506122ea565b601f19841661228d87611d0b565b965061229886611d0b565b60005b828110156122c05784890154825560018201915060018501945060208101905061229b565b868310156122dd57848901546122d9601f891682611e7d565b8355505b6001600288020188555050505b5050505050505b565b7f4e487b7100000000000000000000000000000000000000000000000000000000600052603160045260246000fdfea2646970667358221220fc44a9075e7cf374bd25e1a98661788afe3b51726d4718f004adcbfca57d536364736f6c63430008140033a2646970667358221220fb01e7c088316d078f463da8c476c200ce26af37d2b5af1aa5d8e1f233865a5764736f6c63430008140033",
  "linkReferences": {},
  "deployedLinkReferences": {}
}