{
  "_format": "hh-sol-artifact-1",
  "contractName": "Retailer",
  "sourceName": "contracts/Retailer.sol",
  "abi": [
    {
      "inputs": [],
      "stateMutability": "nonpayable",
      "type": "constructor"
    },
    {
      "anonymous": false,
      "inputs": [
        {
          "indexed": false,
          "internalType": "address",
          "name": "retailer",
          "type": "address"
        }
      ],
      "name": "RetailerAdded",
      "type": "event"
    },
    {
      "inputs": [
        {
          "internalType": "address",
          "name": "_retailer",
          "type": "address"
        }
      ],
      "name": "addRetailer",
      "outputs": [],
      "stateMutability": "nonpayable",
      "type": "function"
    },
    {
      "inputs": [
        {
          "internalType": "address",
          "name": "_retailer",
          "type": "address"
        }
      ],
      "name": "getRetailerContract",
      "outputs": [
        {
          "internalType": "address",
          "name": "",
          "type": "address"
        }
      ],
      "stateMutability": "view",
      "type": "function"
    },
    {
      "inputs": [],
      "name": "getRetailerCount",
      "outputs": [
        {
          "internalType": "uint8",
          "name": "",
          "type": "uint8"
        }
      ],
      "stateMutability": "view",
      "type": "function"
    },
    {
      "inputs": [
        {
          "internalType": "address",
          "name": "_retailer",
          "type": "address"
        }
      ],
      "name": "isRetailer",
      "outputs": [
        {
          "internalType": "bool",
          "name": "",
          "type": "bool"
        }
      ],
      "stateMutability": "view",
      "type": "function"
    },
    {
      "inputs": [
        {
          "internalType": "address",
          "name": "",
          "type": "address"
        }
      ],
      "name": "retailerAddresses",
      "outputs": [
        {
          "internalType": "bool",
          "name": "",
          "type": "bool"
        }
      ],
      "stateMutability": "view",
      "type": "function"
    },
    {
      "inputs": [
        {
          "internalType": "address",
          "name": "",
          "type": "address"
        }
      ],
      "name": "retailerContract",
      "outputs": [
        {
          "internalType": "address",
          "name": "",
          "type": "address"
        }
      ],
      "stateMutability": "view",
      "type": "function"
    },
    {
      "inputs": [],
      "name": "retailerCount",
      "outputs": [
        {
          "internalType": "uint8",
          "name": "",
          "type": "uint8"
        }
      ],
      "stateMutability": "view",
      "type": "function"
    },
    {
      "inputs": [
        {
          "internalType": "address",
          "name": "_retailer",
          "type": "address"
        },
        {
          "internalType": "address",
          "name": "_contract",
          "type": "address"
        }
      ],
      "name": "setRetailerContract",
      "outputs": [],
      "stateMutability": "nonpayable",
      "type": "function"
    }
  ],
  "bytecode": "0x608060405234801561001057600080fd5b5060016000803373ffffffffffffffffffffffffffffffffffffffff1673ffffffffffffffffffffffffffffffffffffffff16815260200190815260200160002060006101000a81548160ff0219169083151502179055506001600260006101000a81548160ff021916908360ff1602179055506108c7806100936000396000f3fe608060405234801561001057600080fd5b50600436106100885760003560e01c80635da09b881161005b5780635da09b88146101275780638ec4f50514610157578063994cac90146101735780639db21f751461019157610088565b8063265901af1461008d578063425cb093146100bd57806347c16a7f146100ed578063517f594b1461010b575b600080fd5b6100a760048036038101906100a2919061064c565b6101c1565b6040516100b49190610694565b60405180910390f35b6100d760048036038101906100d2919061064c565b6101e1565b6040516100e491906106be565b60405180910390f35b6100f56102d5565b60405161010291906106f5565b60405180910390f35b61012560048036038101906101209190610710565b6102e8565b005b610141600480360381019061013c919061064c565b6103f5565b60405161014e9190610694565b60405180910390f35b610171600480360381019061016c919061064c565b61044a565b005b61017b61059f565b60405161018891906106f5565b60405180910390f35b6101ab60048036038101906101a6919061064c565b6105b6565b6040516101b891906106be565b60405180910390f35b60006020528060005260406000206000915054906101000a900460ff1681565b60008060008373ffffffffffffffffffffffffffffffffffffffff1673ffffffffffffffffffffffffffffffffffffffff16815260200190815260200160002060009054906101000a900460ff1661026e576040517f08c379a0000000000000000000000000000000000000000000000000000000008152600401610265906107ad565b60405180910390fd5b600160008373ffffffffffffffffffffffffffffffffffffffff1673ffffffffffffffffffffffffffffffffffffffff16815260200190815260200160002060009054906101000a900473ffffffffffffffffffffffffffffffffffffffff169050919050565b600260009054906101000a900460ff1681565b6000808373ffffffffffffffffffffffffffffffffffffffff1673ffffffffffffffffffffffffffffffffffffffff16815260200190815260200160002060009054906101000a900460ff16610373576040517f08c379a000000000000000000000000000000000000000000000000000000000815260040161036a906107ad565b60405180910390fd5b80600160008473ffffffffffffffffffffffffffffffffffffffff1673ffffffffffffffffffffffffffffffffffffffff16815260200190815260200160002060006101000a81548173ffffffffffffffffffffffffffffffffffffffff021916908373ffffffffffffffffffffffffffffffffffffffff1602179055505050565b60008060008373ffffffffffffffffffffffffffffffffffffffff1673ffffffffffffffffffffffffffffffffffffffff16815260200190815260200160002060009054906101000a900460ff169050919050565b6000808273ffffffffffffffffffffffffffffffffffffffff1673ffffffffffffffffffffffffffffffffffffffff16815260200190815260200160002060009054906101000a900460ff16156104d6576040517f08c379a00000000000000000000000000000000000000000000000000000000081526004016104cd90610819565b60405180910390fd5b60016000808373ffffffffffffffffffffffffffffffffffffffff1673ffffffffffffffffffffffffffffffffffffffff16815260200190815260200160002060006101000a81548160ff0219169083151502179055506002600081819054906101000a900460ff168092919061054c90610868565b91906101000a81548160ff021916908360ff160217905550507f71ae26cad02663e3d92efd6ec56031a80d74a20c0ab4183faa8bf262261c9baa8160405161059491906106be565b60405180910390a150565b6000600260009054906101000a900460ff16905090565b60016020528060005260406000206000915054906101000a900473ffffffffffffffffffffffffffffffffffffffff1681565b600080fd5b600073ffffffffffffffffffffffffffffffffffffffff82169050919050565b6000610619826105ee565b9050919050565b6106298161060e565b811461063457600080fd5b50565b60008135905061064681610620565b92915050565b600060208284031215610662576106616105e9565b5b600061067084828501610637565b91505092915050565b60008115159050919050565b61068e81610679565b82525050565b60006020820190506106a96000830184610685565b92915050565b6106b88161060e565b82525050565b60006020820190506106d360008301846106af565b92915050565b600060ff82169050919050565b6106ef816106d9565b82525050565b600060208201905061070a60008301846106e6565b92915050565b60008060408385031215610727576107266105e9565b5b600061073585828601610637565b925050602061074685828601610637565b9150509250929050565b600082825260208201905092915050565b7f52657461696c6572206e6f742061646465640000000000000000000000000000600082015250565b6000610797601283610750565b91506107a282610761565b602082019050919050565b600060208201905081810360008301526107c68161078a565b9050919050565b7f52657461696c657220616c726561647920616464656400000000000000000000600082015250565b6000610803601683610750565b915061080e826107cd565b602082019050919050565b60006020820190508181036000830152610832816107f6565b9050919050565b7f4e487b7100000000000000000000000000000000000000000000000000000000600052601160045260246000fd5b6000610873826106d9565b915060ff820361088657610885610839565b5b60018201905091905056fea26469706673582212206bd98ef82149522ae41cb97fe938a6016d40950592df37454d6b83f97a69c9ad64736f6c63430008140033",
  "linkReferences": {},
  "deployedLinkReferences": {}
}