{
  "_format": "hh-sol-artifact-1",
  "contractName": "MarketPlaceFactory",
  "sourceName": "contracts/MarketPlaceFactory.sol",
  "abi": [
    {
      "anonymous": false,
      "inputs": [
        {
          "indexed": false,
          "internalType": "address",
          "name": "retailer",
          "type": "address"
        },
        {
          "indexed": false,
          "internalType": "address",
          "name": "marketPlace",
          "type": "address"
        }
      ],
      "name": "MarketPlaceCreated",
      "type": "event"
    },
    {
      "inputs": [
        {
          "internalType": "string",
          "name": "_name",
          "type": "string"
        },
        {
          "internalType": "string",
          "name": "_description",
          "type": "string"
        }
      ],
      "name": "createMarketPlace",
      "outputs": [
        {
          "internalType": "address",
          "name": "",
          "type": "address"
        }
      ],
      "stateMutability": "nonpayable",
      "type": "function"
    },
    {
      "inputs": [],
      "name": "getMarketPlaceCount",
      "outputs": [
        {
          "internalType": "uint8",
          "name": "",
          "type": "uint8"
        }
      ],
      "stateMutability": "view",
      "type": "function"
    },
    {
      "inputs": [
        {
          "internalType": "address",
          "name": "_retailer",
          "type": "address"
        }
      ],
      "name": "getRetailerContract",
      "outputs": [
        {
          "internalType": "address",
          "name": "",
          "type": "address"
        }
      ],
      "stateMutability": "view",
      "type": "function"
    },
    {
      "inputs": [
        {
          "internalType": "address",
          "name": "_retailer",
          "type": "address"
        }
      ],
      "name": "isRetailer",
      "outputs": [
        {
          "internalType": "bool",
          "name": "",
          "type": "bool"
        }
      ],
      "stateMutability": "view",
      "type": "function"
    }
  ],
  "bytecode": "0x608060405234801561001057600080fd5b50615329806100206000396000f3fe60806040523480156200001157600080fd5b5060043610620000525760003560e01c8063425cb09314620000575780635da09b88146200008d578063626598b514620000c3578063abc9d75414620000f9575b600080fd5b6200007560048036038101906200006f9190620005b9565b6200011b565b604051620000849190620005fc565b60405180910390f35b620000ab6004803603810190620000a59190620005b9565b62000213565b604051620000ba919062000636565b60405180910390f35b620000e16004803603810190620000db9190620007b5565b62000269565b604051620000f09190620005fc565b60405180910390f35b6200010362000526565b60405162000112919062000858565b60405180910390f35b6000600160008373ffffffffffffffffffffffffffffffffffffffff1673ffffffffffffffffffffffffffffffffffffffff16815260200190815260200160002060009054906101000a900460ff16620001ac576040517f08c379a0000000000000000000000000000000000000000000000000000000008152600401620001a390620008d6565b60405180910390fd5b600260008373ffffffffffffffffffffffffffffffffffffffff1673ffffffffffffffffffffffffffffffffffffffff16815260200190815260200160002060009054906101000a900473ffffffffffffffffffffffffffffffffffffffff169050919050565b6000600160008373ffffffffffffffffffffffffffffffffffffffff1673ffffffffffffffffffffffffffffffffffffffff16815260200190815260200160002060009054906101000a900460ff169050919050565b6000600160003373ffffffffffffffffffffffffffffffffffffffff1673ffffffffffffffffffffffffffffffffffffffff16815260200190815260200160002060009054906101000a900460ff1615620002fb576040517f08c379a0000000000000000000000000000000000000000000000000000000008152600401620002f29062000948565b60405180910390fd5b60018060003373ffffffffffffffffffffffffffffffffffffffff1673ffffffffffffffffffffffffffffffffffffffff16815260200190815260200160002060006101000a81548160ff02191690831515021790555060008383604051620003649062000532565b62000371929190620009e2565b604051809103906000f0801580156200038e573d6000803e3d6000fd5b5090506000819080600181540180825580915050600190039060005260206000200160009091909190916101000a81548173ffffffffffffffffffffffffffffffffffffffff021916908373ffffffffffffffffffffffffffffffffffffffff16021790555080600260003373ffffffffffffffffffffffffffffffffffffffff1673ffffffffffffffffffffffffffffffffffffffff16815260200190815260200160002060006101000a81548173ffffffffffffffffffffffffffffffffffffffff021916908373ffffffffffffffffffffffffffffffffffffffff1602179055508073ffffffffffffffffffffffffffffffffffffffff1663f2fde38b336040518263ffffffff1660e01b8152600401620004ad9190620005fc565b600060405180830381600087803b158015620004c857600080fd5b505af1158015620004dd573d6000803e3d6000fd5b505050507fb1ae1b273fd44c9432ebfae882799eab6d16b1363db17cc6b819cb453c5a2fc733826040516200051492919062000a1d565b60405180910390a18091505092915050565b60008080549050905090565b6148a98062000a4b83390190565b6000604051905090565b600080fd5b600080fd5b600073ffffffffffffffffffffffffffffffffffffffff82169050919050565b6000620005818262000554565b9050919050565b620005938162000574565b81146200059f57600080fd5b50565b600081359050620005b38162000588565b92915050565b600060208284031215620005d257620005d16200054a565b5b6000620005e284828501620005a2565b91505092915050565b620005f68162000574565b82525050565b6000602082019050620006136000830184620005eb565b92915050565b60008115159050919050565b620006308162000619565b82525050565b60006020820190506200064d600083018462000625565b92915050565b600080fd5b600080fd5b6000601f19601f8301169050919050565b7f4e487b7100000000000000000000000000000000000000000000000000000000600052604160045260246000fd5b620006a8826200065d565b810181811067ffffffffffffffff82111715620006ca57620006c96200066e565b5b80604052505050565b6000620006df62000540565b9050620006ed82826200069d565b919050565b600067ffffffffffffffff82111562000710576200070f6200066e565b5b6200071b826200065d565b9050602081019050919050565b82818337600083830152505050565b60006200074e6200074884620006f2565b620006d3565b9050828152602081018484840111156200076d576200076c62000658565b5b6200077a84828562000728565b509392505050565b600082601f8301126200079a576200079962000653565b5b8135620007ac84826020860162000737565b91505092915050565b60008060408385031215620007cf57620007ce6200054a565b5b600083013567ffffffffffffffff811115620007f057620007ef6200054f565b5b620007fe8582860162000782565b925050602083013567ffffffffffffffff8111156200082257620008216200054f565b5b620008308582860162000782565b9150509250929050565b600060ff82169050919050565b62000852816200083a565b82525050565b60006020820190506200086f600083018462000847565b92915050565b600082825260208201905092915050565b7f52657461696c6572206e6f742061646465640000000000000000000000000000600082015250565b6000620008be60128362000875565b9150620008cb8262000886565b602082019050919050565b60006020820190508181036000830152620008f181620008af565b9050919050565b7f52657461696c657220616c726561647920616464656400000000000000000000600082015250565b60006200093060168362000875565b91506200093d82620008f8565b602082019050919050565b60006020820190508181036000830152620009638162000921565b9050919050565b600081519050919050565b60005b838110156200099557808201518184015260208101905062000978565b60008484015250505050565b6000620009ae826200096a565b620009ba818562000875565b9350620009cc81856020860162000975565b620009d7816200065d565b840191505092915050565b60006040820190508181036000830152620009fe8185620009a1565b9050818103602083015262000a148184620009a1565b90509392505050565b600060408201905062000a346000830185620005eb565b62000a436020830184620005eb565b939250505056fe60806040526000600b553480156200001657600080fd5b50604051620048a9380380620048a983398181016040528101906200003c9190620003d9565b6040518060400160405280600781526020017f4249544d415254000000000000000000000000000000000000000000000000008152506040518060400160405280600581526020017f424d41525400000000000000000000000000000000000000000000000000000081525033600073ffffffffffffffffffffffffffffffffffffffff168173ffffffffffffffffffffffffffffffffffffffff16036200011e5760006040517f1e4fbdf7000000000000000000000000000000000000000000000000000000008152600401620001159190620004a3565b60405180910390fd5b6200012f816200018260201b60201c565b5081600190816200014191906200070b565b5080600290816200015391906200070b565b50505081600990816200016791906200070b565b5080600a90816200017991906200070b565b505050620007f2565b60008060009054906101000a900473ffffffffffffffffffffffffffffffffffffffff169050816000806101000a81548173ffffffffffffffffffffffffffffffffffffffff021916908373ffffffffffffffffffffffffffffffffffffffff1602179055508173ffffffffffffffffffffffffffffffffffffffff168173ffffffffffffffffffffffffffffffffffffffff167f8be0079c531659141344cd1fd0a4f28419497f9722a3daafe3b4186f6b6457e060405160405180910390a35050565b6000604051905090565b600080fd5b600080fd5b600080fd5b600080fd5b6000601f19601f8301169050919050565b7f4e487b7100000000000000000000000000000000000000000000000000000000600052604160045260246000fd5b620002af8262000264565b810181811067ffffffffffffffff82111715620002d157620002d062000275565b5b80604052505050565b6000620002e662000246565b9050620002f48282620002a4565b919050565b600067ffffffffffffffff82111562000317576200031662000275565b5b620003228262000264565b9050602081019050919050565b60005b838110156200034f57808201518184015260208101905062000332565b60008484015250505050565b6000620003726200036c84620002f9565b620002da565b9050828152602081018484840111156200039157620003906200025f565b5b6200039e8482856200032f565b509392505050565b600082601f830112620003be57620003bd6200025a565b5b8151620003d08482602086016200035b565b91505092915050565b60008060408385031215620003f357620003f262000250565b5b600083015167ffffffffffffffff81111562000414576200041362000255565b5b6200042285828601620003a6565b925050602083015167ffffffffffffffff81111562000446576200044562000255565b5b6200045485828601620003a6565b9150509250929050565b600073ffffffffffffffffffffffffffffffffffffffff82169050919050565b60006200048b826200045e565b9050919050565b6200049d816200047e565b82525050565b6000602082019050620004ba600083018462000492565b92915050565b600081519050919050565b7f4e487b7100000000000000000000000000000000000000000000000000000000600052602260045260246000fd5b600060028204905060018216806200051357607f821691505b602082108103620005295762000528620004cb565b5b50919050565b60008190508160005260206000209050919050565b60006020601f8301049050919050565b600082821b905092915050565b600060088302620005937fffffffffffffffffffffffffffffffffffffffffffffffffffffffffffffffff8262000554565b6200059f868362000554565b95508019841693508086168417925050509392505050565b6000819050919050565b6000819050919050565b6000620005ec620005e6620005e084620005b7565b620005c1565b620005b7565b9050919050565b6000819050919050565b6200060883620005cb565b620006206200061782620005f3565b84845462000561565b825550505050565b600090565b6200063762000628565b62000644818484620005fd565b505050565b5b818110156200066c57620006606000826200062d565b6001810190506200064a565b5050565b601f821115620006bb5762000685816200052f565b620006908462000544565b81016020851015620006a0578190505b620006b8620006af8562000544565b83018262000649565b50505b505050565b600082821c905092915050565b6000620006e060001984600802620006c0565b1980831691505092915050565b6000620006fb8383620006cd565b9150826002028217905092915050565b6200071682620004c0565b67ffffffffffffffff81111562000732576200073162000275565b5b6200073e8254620004fa565b6200074b82828562000670565b600060209050601f8311600181146200078357600084156200076e578287015190505b6200077a8582620006ed565b865550620007ea565b601f19841662000793866200052f565b60005b82811015620007bd5784890151825560018201915060208501945060208101905062000796565b86831015620007dd5784890151620007d9601f891682620006cd565b8355505b6001600288020188555050505b505050505050565b6140a780620008026000396000f3fe60806040526004361061014b5760003560e01c80638ef291e9116100b6578063c87b56dd1161006f578063c87b56dd14610481578063dbae7ba3146104be578063e985e9c5146104e9578063ed90c7b714610526578063f18f8b6d1461054f578063f2fde38b146105785761014b565b80638ef291e91461037157806395d89b411461039c578063a22cb465146103c7578063b88d4fde146103f0578063b9db15b414610419578063c29b2f20146104565761014b565b80636352211e116101085780636352211e146102705780636daf0fbb146102ad57806370a08231146102d6578063715018a6146103135780638642269e1461032a5780638da5cb5b146103465761014b565b806301ffc9a71461015057806306fdde031461018d578063081812fc146101b8578063095ea7b3146101f557806323b872dd1461021e57806342842e0e14610247575b600080fd5b34801561015c57600080fd5b5061017760048036038101906101729190612b81565b6105a1565b6040516101849190612bc9565b60405180910390f35b34801561019957600080fd5b506101a2610602565b6040516101af9190612c74565b60405180910390f35b3480156101c457600080fd5b506101df60048036038101906101da9190612ccc565b610694565b6040516101ec9190612d3a565b60405180910390f35b34801561020157600080fd5b5061021c60048036038101906102179190612d81565b6106b0565b005b34801561022a57600080fd5b5061024560048036038101906102409190612dc1565b6106c6565b005b34801561025357600080fd5b5061026e60048036038101906102699190612dc1565b6107c8565b005b34801561027c57600080fd5b5061029760048036038101906102929190612ccc565b6107e8565b6040516102a49190612d3a565b60405180910390f35b3480156102b957600080fd5b506102d460048036038101906102cf9190612f49565b6107fa565b005b3480156102e257600080fd5b506102fd60048036038101906102f89190613018565b610a0e565b60405161030a9190613054565b60405180910390f35b34801561031f57600080fd5b50610328610ac8565b005b610344600480360381019061033f9190612ccc565b610adc565b005b34801561035257600080fd5b5061035b610d67565b6040516103689190612d3a565b60405180910390f35b34801561037d57600080fd5b50610386610d90565b6040516103939190612c74565b60405180910390f35b3480156103a857600080fd5b506103b1610e1e565b6040516103be9190612c74565b60405180910390f35b3480156103d357600080fd5b506103ee60048036038101906103e9919061309b565b610eb0565b005b3480156103fc57600080fd5b506104176004803603810190610412919061317c565b610ec6565b005b34801561042557600080fd5b50610440600480360381019061043b9190612ccc565b610ee3565b60405161044d91906132ef565b60405180910390f35b34801561046257600080fd5b5061046b611147565b604051610478919061346a565b60405180910390f35b34801561048d57600080fd5b506104a860048036038101906104a39190612ccc565b61137a565b6040516104b59190612c74565b60405180910390f35b3480156104ca57600080fd5b506104d361148d565b6040516104e09190612c74565b60405180910390f35b3480156104f557600080fd5b50610510600480360381019061050b919061348c565b61151b565b60405161051d9190612bc9565b60405180910390f35b34801561053257600080fd5b5061054d60048036038101906105489190612ccc565b6115af565b005b34801561055b57600080fd5b50610576600480360381019061057191906134cc565b61172e565b005b34801561058457600080fd5b5061059f600480360381019061059a9190613018565b6119c9565b005b6000634906490660e01b7bffffffffffffffffffffffffffffffffffffffffffffffffffffffff1916827bffffffffffffffffffffffffffffffffffffffffffffffffffffffff191614806105fb57506105fa82611a4f565b5b9050919050565b606060018054610611906135dc565b80601f016020809104026020016040519081016040528092919081815260200182805461063d906135dc565b801561068a5780601f1061065f5761010080835404028352916020019161068a565b820191906000526020600020905b81548152906001019060200180831161066d57829003601f168201915b5050505050905090565b600061069f82611b31565b506106a982611bb9565b9050919050565b6106c282826106bd611bf6565b611bfe565b5050565b600073ffffffffffffffffffffffffffffffffffffffff168273ffffffffffffffffffffffffffffffffffffffff16036107385760006040517f64a0ae9200000000000000000000000000000000000000000000000000000000815260040161072f9190612d3a565b60405180910390fd5b600061074c8383610747611bf6565b611c10565b90508373ffffffffffffffffffffffffffffffffffffffff168173ffffffffffffffffffffffffffffffffffffffff16146107c2578382826040517f64283d7b0000000000000000000000000000000000000000000000000000000081526004016107b99392919061360d565b60405180910390fd5b50505050565b6107e383838360405180602001604052806000815250610ec6565b505050565b60006107f382611b31565b9050919050565b600085511161083e576040517f08c379a000000000000000000000000000000000000000000000000000000000815260040161083590613690565b60405180910390fd5b60008311610881576040517f08c379a0000000000000000000000000000000000000000000000000000000008152600401610878906136fc565b60405180910390fd5b60008451116108c5576040517f08c379a00000000000000000000000000000000000000000000000000000000081526004016108bc90613768565b60405180910390fd5b60008211610908576040517f08c379a00000000000000000000000000000000000000000000000000000000081526004016108ff906137d4565b60405180910390fd5b600081511161094c576040517f08c379a000000000000000000000000000000000000000000000000000000000815260040161094390613840565b60405180910390fd5b60086040518060c001604052808781526020018681526020018581526020018481526020018381526020016000815250908060018154018082558091505060019003906000526020600020906006020160009091909190915060008201518160000190816109ba9190613a0c565b5060208201518160010190816109d09190613a0c565b50604082015181600201556060820151816003015560808201518160040190816109fa9190613a0c565b5060a0820151816005015550505050505050565b60008073ffffffffffffffffffffffffffffffffffffffff168273ffffffffffffffffffffffffffffffffffffffff1603610a815760006040517f89c62b64000000000000000000000000000000000000000000000000000000008152600401610a789190612d3a565b60405180910390fd5b600460008373ffffffffffffffffffffffffffffffffffffffff1673ffffffffffffffffffffffffffffffffffffffff168152602001908152602001600020549050919050565b610ad0611e2a565b610ada6000611eb1565b565b60008110158015610af1575060088054905081105b610b30576040517f08c379a0000000000000000000000000000000000000000000000000000000008152600401610b2790613b2a565b60405180910390fd5b600060088281548110610b4657610b45613b4a565b5b90600052602060002090600602016003015411610b98576040517f08c379a0000000000000000000000000000000000000000000000000000000008152600401610b8f90613bc5565b60405180910390fd5b60088181548110610bac57610bab613b4a565b5b906000526020600020906006020160020154341015610c00576040517f08c379a0000000000000000000000000000000000000000000000000000000008152600401610bf790613c31565b60405180910390fd5b610c08610d67565b73ffffffffffffffffffffffffffffffffffffffff166108fc349081150290604051600060405180830381858888f19350505050158015610c4d573d6000803e3d6000fd5b50600160088281548110610c6457610c63613b4a565b5b90600052602060002090600602016005016000828254610c849190613c80565b92505081905550600160088281548110610ca157610ca0613b4a565b5b90600052602060002090600602016003016000828254610cc19190613cb4565b925050819055506001600b54610cd79190613c80565b600b81905550610ce933600b54611f75565b610d64600b546009600a60088581548110610d0757610d06613b4a565b5b906000526020600020906006020160000160088681548110610d2c57610d2b613b4a565b5b9060005260206000209060060201600101604051602001610d509493929190613d76565b60405160208183030381529060405261206e565b50565b60008060009054906101000a900473ffffffffffffffffffffffffffffffffffffffff16905090565b60098054610d9d906135dc565b80601f0160208091040260200160405190810160405280929190818152602001828054610dc9906135dc565b8015610e165780601f10610deb57610100808354040283529160200191610e16565b820191906000526020600020905b815481529060010190602001808311610df957829003601f168201915b505050505081565b606060028054610e2d906135dc565b80601f0160208091040260200160405190810160405280929190818152602001828054610e59906135dc565b8015610ea65780601f10610e7b57610100808354040283529160200191610ea6565b820191906000526020600020905b815481529060010190602001808311610e8957829003601f168201915b5050505050905090565b610ec2610ebb611bf6565b83836120ca565b5050565b610ed18484846106c6565b610edd84848484612239565b50505050565b610eeb612a82565b60008210158015610f00575060088054905082105b610f3f576040517f08c379a0000000000000000000000000000000000000000000000000000000008152600401610f3690613b2a565b60405180910390fd5b60088281548110610f5357610f52613b4a565b5b90600052602060002090600602016040518060c0016040529081600082018054610f7c906135dc565b80601f0160208091040260200160405190810160405280929190818152602001828054610fa8906135dc565b8015610ff55780601f10610fca57610100808354040283529160200191610ff5565b820191906000526020600020905b815481529060010190602001808311610fd857829003601f168201915b5050505050815260200160018201805461100e906135dc565b80601f016020809104026020016040519081016040528092919081815260200182805461103a906135dc565b80156110875780601f1061105c57610100808354040283529160200191611087565b820191906000526020600020905b81548152906001019060200180831161106a57829003601f168201915b5050505050815260200160028201548152602001600382015481526020016004820180546110b4906135dc565b80601f01602080910402602001604051908101604052809291908181526020018280546110e0906135dc565b801561112d5780601f106111025761010080835404028352916020019161112d565b820191906000526020600020905b81548152906001019060200180831161111057829003601f168201915b505050505081526020016005820154815250509050919050565b60606008805480602002602001604051908101604052809291908181526020016000905b8282101561137157838290600052602060002090600602016040518060c001604052908160008201805461119e906135dc565b80601f01602080910402602001604051908101604052809291908181526020018280546111ca906135dc565b80156112175780601f106111ec57610100808354040283529160200191611217565b820191906000526020600020905b8154815290600101906020018083116111fa57829003601f168201915b50505050508152602001600182018054611230906135dc565b80601f016020809104026020016040519081016040528092919081815260200182805461125c906135dc565b80156112a95780601f1061127e576101008083540402835291602001916112a9565b820191906000526020600020905b81548152906001019060200180831161128c57829003601f168201915b5050505050815260200160028201548152602001600382015481526020016004820180546112d6906135dc565b80601f0160208091040260200160405190810160405280929190818152602001828054611302906135dc565b801561134f5780601f106113245761010080835404028352916020019161134f565b820191906000526020600020905b81548152906001019060200180831161133257829003601f168201915b505050505081526020016005820154815250508152602001906001019061116b565b50505050905090565b606061138582611b31565b5060006007600084815260200190815260200160002080546113a6906135dc565b80601f01602080910402602001604051908101604052809291908181526020018280546113d2906135dc565b801561141f5780601f106113f45761010080835404028352916020019161141f565b820191906000526020600020905b81548152906001019060200180831161140257829003601f168201915b5050505050905060006114306123f0565b90506000815103611445578192505050611488565b60008251111561147a578082604051602001611462929190613de5565b60405160208183030381529060405292505050611488565b61148384612407565b925050505b919050565b600a805461149a906135dc565b80601f01602080910402602001604051908101604052809291908181526020018280546114c6906135dc565b80156115135780601f106114e857610100808354040283529160200191611513565b820191906000526020600020905b8154815290600101906020018083116114f657829003601f168201915b505050505081565b6000600660008473ffffffffffffffffffffffffffffffffffffffff1673ffffffffffffffffffffffffffffffffffffffff16815260200190815260200160002060008373ffffffffffffffffffffffffffffffffffffffff1673ffffffffffffffffffffffffffffffffffffffff16815260200190815260200160002060009054906101000a900460ff16905092915050565b600081101580156115c4575060088054905081105b611603576040517f08c379a00000000000000000000000000000000000000000000000000000000081526004016115fa90613b2a565b60405180910390fd5b600860016008805490506116179190613cb4565b8154811061162857611627613b4a565b5b90600052602060002090600602016008828154811061164a57611649613b4a565b5b90600052602060002090600602016000820181600001908161166c9190613e1f565b50600182018160010190816116819190613e1f565b506002820154816002015560038201548160030155600482018160040190816116aa9190613e1f565b506005820154816005015590505060088054806116ca576116c9613f07565b5b6001900381819060005260206000209060060201600080820160006116ef9190612ab8565b6001820160006116ff9190612ab8565b6002820160009055600382016000905560048201600061171f9190612ab8565b60058201600090555050905550565b60008610158015611743575060088054905086105b611782576040517f08c379a000000000000000000000000000000000000000000000000000000000815260040161177990613b2a565b60405180910390fd5b60008551116117c6576040517f08c379a00000000000000000000000000000000000000000000000000000000081526004016117bd90613690565b60405180910390fd5b600084511161180a576040517f08c379a000000000000000000000000000000000000000000000000000000000815260040161180190613768565b60405180910390fd5b6000831161184d576040517f08c379a0000000000000000000000000000000000000000000000000000000008152600401611844906136fc565b60405180910390fd5b60008211611890576040517f08c379a0000000000000000000000000000000000000000000000000000000008152600401611887906137d4565b60405180910390fd5b60008151116118d4576040517f08c379a00000000000000000000000000000000000000000000000000000000081526004016118cb90613840565b60405180910390fd5b84600887815481106118e9576118e8613b4a565b5b906000526020600020906006020160000190816119069190613a0c565b50826008878154811061191c5761191b613b4a565b5b906000526020600020906006020160020181905550836008878154811061194657611945613b4a565b5b906000526020600020906006020160010190816119639190613a0c565b50816008878154811061197957611978613b4a565b5b90600052602060002090600602016003018190555080600887815481106119a3576119a2613b4a565b5b906000526020600020906006020160040190816119c09190613a0c565b50505050505050565b6119d1611e2a565b600073ffffffffffffffffffffffffffffffffffffffff168173ffffffffffffffffffffffffffffffffffffffff1603611a435760006040517f1e4fbdf7000000000000000000000000000000000000000000000000000000008152600401611a3a9190612d3a565b60405180910390fd5b611a4c81611eb1565b50565b60007f80ac58cd000000000000000000000000000000000000000000000000000000007bffffffffffffffffffffffffffffffffffffffffffffffffffffffff1916827bffffffffffffffffffffffffffffffffffffffffffffffffffffffff19161480611b1a57507f5b5e139f000000000000000000000000000000000000000000000000000000007bffffffffffffffffffffffffffffffffffffffffffffffffffffffff1916827bffffffffffffffffffffffffffffffffffffffffffffffffffffffff1916145b80611b2a5750611b2982612470565b5b9050919050565b600080611b3d836124da565b9050600073ffffffffffffffffffffffffffffffffffffffff168173ffffffffffffffffffffffffffffffffffffffff1603611bb057826040517f7e273289000000000000000000000000000000000000000000000000000000008152600401611ba79190613054565b60405180910390fd5b80915050919050565b60006005600083815260200190815260200160002060009054906101000a900473ffffffffffffffffffffffffffffffffffffffff169050919050565b600033905090565b611c0b8383836001612517565b505050565b600080611c1c846124da565b9050600073ffffffffffffffffffffffffffffffffffffffff168373ffffffffffffffffffffffffffffffffffffffff1614611c5e57611c5d8184866126dc565b5b600073ffffffffffffffffffffffffffffffffffffffff168173ffffffffffffffffffffffffffffffffffffffff1614611cef57611ca0600085600080612517565b6001600460008373ffffffffffffffffffffffffffffffffffffffff1673ffffffffffffffffffffffffffffffffffffffff168152602001908152602001600020600082825403925050819055505b600073ffffffffffffffffffffffffffffffffffffffff168573ffffffffffffffffffffffffffffffffffffffff1614611d72576001600460008773ffffffffffffffffffffffffffffffffffffffff1673ffffffffffffffffffffffffffffffffffffffff168152602001908152602001600020600082825401925050819055505b846003600086815260200190815260200160002060006101000a81548173ffffffffffffffffffffffffffffffffffffffff021916908373ffffffffffffffffffffffffffffffffffffffff160217905550838573ffffffffffffffffffffffffffffffffffffffff168273ffffffffffffffffffffffffffffffffffffffff167fddf252ad1be2c89b69c2b068fc378daa952ba7f163c4a11628f55a4df523b3ef60405160405180910390a4809150509392505050565b611e32611bf6565b73ffffffffffffffffffffffffffffffffffffffff16611e50610d67565b73ffffffffffffffffffffffffffffffffffffffff1614611eaf57611e73611bf6565b6040517f118cdaa7000000000000000000000000000000000000000000000000000000008152600401611ea69190612d3a565b60405180910390fd5b565b60008060009054906101000a900473ffffffffffffffffffffffffffffffffffffffff169050816000806101000a81548173ffffffffffffffffffffffffffffffffffffffff021916908373ffffffffffffffffffffffffffffffffffffffff1602179055508173ffffffffffffffffffffffffffffffffffffffff168173ffffffffffffffffffffffffffffffffffffffff167f8be0079c531659141344cd1fd0a4f28419497f9722a3daafe3b4186f6b6457e060405160405180910390a35050565b600073ffffffffffffffffffffffffffffffffffffffff168273ffffffffffffffffffffffffffffffffffffffff1603611fe75760006040517f64a0ae92000000000000000000000000000000000000000000000000000000008152600401611fde9190612d3a565b60405180910390fd5b6000611ff583836000611c10565b9050600073ffffffffffffffffffffffffffffffffffffffff168173ffffffffffffffffffffffffffffffffffffffff16146120695760006040517f73c6ac6e0000000000000000000000000000000000000000000000000000000081526004016120609190612d3a565b60405180910390fd5b505050565b8060076000848152602001908152602001600020908161208e9190613a0c565b507ff8e1a15aba9398e019f0b49df1a4fde98ee17ae345cb5f6b5e2c27f5033e8ce7826040516120be9190613054565b60405180910390a15050565b600073ffffffffffffffffffffffffffffffffffffffff168273ffffffffffffffffffffffffffffffffffffffff160361213b57816040517f5b08ba180000000000000000000000000000000000000000000000000000000081526004016121329190612d3a565b60405180910390fd5b80600660008573ffffffffffffffffffffffffffffffffffffffff1673ffffffffffffffffffffffffffffffffffffffff16815260200190815260200160002060008473ffffffffffffffffffffffffffffffffffffffff1673ffffffffffffffffffffffffffffffffffffffff16815260200190815260200160002060006101000a81548160ff0219169083151502179055508173ffffffffffffffffffffffffffffffffffffffff168373ffffffffffffffffffffffffffffffffffffffff167f17307eab39ab6107e8899845ad3d59bd9653f200f220920489ca2b5937696c318360405161222c9190612bc9565b60405180910390a3505050565b60008373ffffffffffffffffffffffffffffffffffffffff163b11156123ea578273ffffffffffffffffffffffffffffffffffffffff1663150b7a0261227d611bf6565b8685856040518563ffffffff1660e01b815260040161229f9493929190613f8b565b6020604051808303816000875af19250505080156122db57506040513d601f19601f820116820180604052508101906122d89190613fec565b60015b61235f573d806000811461230b576040519150601f19603f3d011682016040523d82523d6000602084013e612310565b606091505b50600081510361235757836040517f64a0ae9200000000000000000000000000000000000000000000000000000000815260040161234e9190612d3a565b60405180910390fd5b805181602001fd5b63150b7a0260e01b7bffffffffffffffffffffffffffffffffffffffffffffffffffffffff1916817bffffffffffffffffffffffffffffffffffffffffffffffffffffffff1916146123e857836040517f64a0ae920000000000000000000000000000000000000000000000000000000081526004016123df9190612d3a565b60405180910390fd5b505b50505050565b606060405180602001604052806000815250905090565b606061241282611b31565b50600061241d6123f0565b9050600081511161243d5760405180602001604052806000815250612468565b80612447846127a0565b604051602001612458929190613de5565b6040516020818303038152906040525b915050919050565b60007f01ffc9a7000000000000000000000000000000000000000000000000000000007bffffffffffffffffffffffffffffffffffffffffffffffffffffffff1916827bffffffffffffffffffffffffffffffffffffffffffffffffffffffff1916149050919050565b60006003600083815260200190815260200160002060009054906101000a900473ffffffffffffffffffffffffffffffffffffffff169050919050565b80806125505750600073ffffffffffffffffffffffffffffffffffffffff168273ffffffffffffffffffffffffffffffffffffffff1614155b1561268457600061256084611b31565b9050600073ffffffffffffffffffffffffffffffffffffffff168373ffffffffffffffffffffffffffffffffffffffff16141580156125cb57508273ffffffffffffffffffffffffffffffffffffffff168173ffffffffffffffffffffffffffffffffffffffff1614155b80156125de57506125dc818461151b565b155b1561262057826040517fa9fbf51f0000000000000000000000000000000000000000000000000000000081526004016126179190612d3a565b60405180910390fd5b811561268257838573ffffffffffffffffffffffffffffffffffffffff168273ffffffffffffffffffffffffffffffffffffffff167f8c5be1e5ebec7d5bd14f71427d1e84f3dd0314c0f7b2291e5b200ac8c7c3b92560405160405180910390a45b505b836005600085815260200190815260200160002060006101000a81548173ffffffffffffffffffffffffffffffffffffffff021916908373ffffffffffffffffffffffffffffffffffffffff16021790555050505050565b6126e783838361286e565b61279b57600073ffffffffffffffffffffffffffffffffffffffff168373ffffffffffffffffffffffffffffffffffffffff160361275c57806040517f7e2732890000000000000000000000000000000000000000000000000000000081526004016127539190613054565b60405180910390fd5b81816040517f177e802f000000000000000000000000000000000000000000000000000000008152600401612792929190614019565b60405180910390fd5b505050565b6060600060016127af8461292f565b01905060008167ffffffffffffffff8111156127ce576127cd612e1e565b5b6040519080825280601f01601f1916602001820160405280156128005781602001600182028036833780820191505090505b509050600082602001820190505b600115612863578080600190039150507f3031323334353637383961626364656600000000000000000000000000000000600a86061a8153600a858161285757612856614042565b5b0494506000850361280e575b819350505050919050565b60008073ffffffffffffffffffffffffffffffffffffffff168373ffffffffffffffffffffffffffffffffffffffff161415801561292657508273ffffffffffffffffffffffffffffffffffffffff168473ffffffffffffffffffffffffffffffffffffffff1614806128e757506128e6848461151b565b5b8061292557508273ffffffffffffffffffffffffffffffffffffffff1661290d83611bb9565b73ffffffffffffffffffffffffffffffffffffffff16145b5b90509392505050565b600080600090507a184f03e93ff9f4daa797ed6e38ed64bf6a1f010000000000000000831061298d577a184f03e93ff9f4daa797ed6e38ed64bf6a1f010000000000000000838161298357612982614042565b5b0492506040810190505b6d04ee2d6d415b85acef810000000083106129ca576d04ee2d6d415b85acef810000000083816129c0576129bf614042565b5b0492506020810190505b662386f26fc1000083106129f957662386f26fc1000083816129ef576129ee614042565b5b0492506010810190505b6305f5e1008310612a22576305f5e1008381612a1857612a17614042565b5b0492506008810190505b6127108310612a47576127108381612a3d57612a3c614042565b5b0492506004810190505b60648310612a6a5760648381612a6057612a5f614042565b5b0492506002810190505b600a8310612a79576001810190505b80915050919050565b6040518060c001604052806060815260200160608152602001600081526020016000815260200160608152602001600081525090565b508054612ac4906135dc565b6000825580601f10612ad65750612af5565b601f016020900490600052602060002090810190612af49190612af8565b5b50565b5b80821115612b11576000816000905550600101612af9565b5090565b6000604051905090565b600080fd5b600080fd5b60007fffffffff0000000000000000000000000000000000000000000000000000000082169050919050565b612b5e81612b29565b8114612b6957600080fd5b50565b600081359050612b7b81612b55565b92915050565b600060208284031215612b9757612b96612b1f565b5b6000612ba584828501612b6c565b91505092915050565b60008115159050919050565b612bc381612bae565b82525050565b6000602082019050612bde6000830184612bba565b92915050565b600081519050919050565b600082825260208201905092915050565b60005b83811015612c1e578082015181840152602081019050612c03565b60008484015250505050565b6000601f19601f8301169050919050565b6000612c4682612be4565b612c508185612bef565b9350612c60818560208601612c00565b612c6981612c2a565b840191505092915050565b60006020820190508181036000830152612c8e8184612c3b565b905092915050565b6000819050919050565b612ca981612c96565b8114612cb457600080fd5b50565b600081359050612cc681612ca0565b92915050565b600060208284031215612ce257612ce1612b1f565b5b6000612cf084828501612cb7565b91505092915050565b600073ffffffffffffffffffffffffffffffffffffffff82169050919050565b6000612d2482612cf9565b9050919050565b612d3481612d19565b82525050565b6000602082019050612d4f6000830184612d2b565b92915050565b612d5e81612d19565b8114612d6957600080fd5b50565b600081359050612d7b81612d55565b92915050565b60008060408385031215612d9857612d97612b1f565b5b6000612da685828601612d6c565b9250506020612db785828601612cb7565b9150509250929050565b600080600060608486031215612dda57612dd9612b1f565b5b6000612de886828701612d6c565b9350506020612df986828701612d6c565b9250506040612e0a86828701612cb7565b9150509250925092565b600080fd5b600080fd5b7f4e487b7100000000000000000000000000000000000000000000000000000000600052604160045260246000fd5b612e5682612c2a565b810181811067ffffffffffffffff82111715612e7557612e74612e1e565b5b80604052505050565b6000612e88612b15565b9050612e948282612e4d565b919050565b600067ffffffffffffffff821115612eb457612eb3612e1e565b5b612ebd82612c2a565b9050602081019050919050565b82818337600083830152505050565b6000612eec612ee784612e99565b612e7e565b905082815260208101848484011115612f0857612f07612e19565b5b612f13848285612eca565b509392505050565b600082601f830112612f3057612f2f612e14565b5b8135612f40848260208601612ed9565b91505092915050565b600080600080600060a08688031215612f6557612f64612b1f565b5b600086013567ffffffffffffffff811115612f8357612f82612b24565b5b612f8f88828901612f1b565b955050602086013567ffffffffffffffff811115612fb057612faf612b24565b5b612fbc88828901612f1b565b9450506040612fcd88828901612cb7565b9350506060612fde88828901612cb7565b925050608086013567ffffffffffffffff811115612fff57612ffe612b24565b5b61300b88828901612f1b565b9150509295509295909350565b60006020828403121561302e5761302d612b1f565b5b600061303c84828501612d6c565b91505092915050565b61304e81612c96565b82525050565b60006020820190506130696000830184613045565b92915050565b61307881612bae565b811461308357600080fd5b50565b6000813590506130958161306f565b92915050565b600080604083850312156130b2576130b1612b1f565b5b60006130c085828601612d6c565b92505060206130d185828601613086565b9150509250929050565b600067ffffffffffffffff8211156130f6576130f5612e1e565b5b6130ff82612c2a565b9050602081019050919050565b600061311f61311a846130db565b612e7e565b90508281526020810184848401111561313b5761313a612e19565b5b613146848285612eca565b509392505050565b600082601f83011261316357613162612e14565b5b813561317384826020860161310c565b91505092915050565b6000806000806080858703121561319657613195612b1f565b5b60006131a487828801612d6c565b94505060206131b587828801612d6c565b93505060406131c687828801612cb7565b925050606085013567ffffffffffffffff8111156131e7576131e6612b24565b5b6131f38782880161314e565b91505092959194509250565b600082825260208201905092915050565b600061321b82612be4565b61322581856131ff565b9350613235818560208601612c00565b61323e81612c2a565b840191505092915050565b61325281612c96565b82525050565b600060c08301600083015184820360008601526132758282613210565b9150506020830151848203602086015261328f8282613210565b91505060408301516132a46040860182613249565b5060608301516132b76060860182613249565b50608083015184820360808601526132cf8282613210565b91505060a08301516132e460a0860182613249565b508091505092915050565b600060208201905081810360008301526133098184613258565b905092915050565b600081519050919050565b600082825260208201905092915050565b6000819050602082019050919050565b600060c083016000830151848203600086015261335a8282613210565b915050602083015184820360208601526133748282613210565b91505060408301516133896040860182613249565b50606083015161339c6060860182613249565b50608083015184820360808601526133b48282613210565b91505060a08301516133c960a0860182613249565b508091505092915050565b60006133e0838361333d565b905092915050565b6000602082019050919050565b600061340082613311565b61340a818561331c565b93508360208202850161341c8561332d565b8060005b85811015613458578484038952815161343985826133d4565b9450613444836133e8565b925060208a01995050600181019050613420565b50829750879550505050505092915050565b6000602082019050818103600083015261348481846133f5565b905092915050565b600080604083850312156134a3576134a2612b1f565b5b60006134b185828601612d6c565b92505060206134c285828601612d6c565b9150509250929050565b60008060008060008060c087890312156134e9576134e8612b1f565b5b60006134f789828a01612cb7565b965050602087013567ffffffffffffffff81111561351857613517612b24565b5b61352489828a01612f1b565b955050604087013567ffffffffffffffff81111561354557613544612b24565b5b61355189828a01612f1b565b945050606061356289828a01612cb7565b935050608061357389828a01612cb7565b92505060a087013567ffffffffffffffff81111561359457613593612b24565b5b6135a089828a01612f1b565b9150509295509295509295565b7f4e487b7100000000000000000000000000000000000000000000000000000000600052602260045260246000fd5b600060028204905060018216806135f457607f821691505b602082108103613607576136066135ad565b5b50919050565b60006060820190506136226000830186612d2b565b61362f6020830185613045565b61363c6040830184612d2b565b949350505050565b7f4e616d6520726571756972656400000000000000000000000000000000000000600082015250565b600061367a600d83612bef565b915061368582613644565b602082019050919050565b600060208201905081810360008301526136a98161366d565b9050919050565b7f5072696365207265717569726564000000000000000000000000000000000000600082015250565b60006136e6600e83612bef565b91506136f1826136b0565b602082019050919050565b60006020820190508181036000830152613715816136d9565b9050919050565b7f4465736372697074696f6e207265717569726564000000000000000000000000600082015250565b6000613752601483612bef565b915061375d8261371c565b602082019050919050565b6000602082019050818103600083015261378181613745565b9050919050565b7f5175616e74697479207265717569726564000000000000000000000000000000600082015250565b60006137be601183612bef565b91506137c982613788565b602082019050919050565b600060208201905081810360008301526137ed816137b1565b9050919050565b7f49504653204c696e6b2072657175697265640000000000000000000000000000600082015250565b600061382a601283612bef565b9150613835826137f4565b602082019050919050565b600060208201905081810360008301526138598161381d565b9050919050565b60008190508160005260206000209050919050565b60006020601f8301049050919050565b600082821b905092915050565b6000600883026138c27fffffffffffffffffffffffffffffffffffffffffffffffffffffffffffffffff82613885565b6138cc8683613885565b95508019841693508086168417925050509392505050565b6000819050919050565b60006139096139046138ff84612c96565b6138e4565b612c96565b9050919050565b6000819050919050565b613923836138ee565b61393761392f82613910565b848454613892565b825550505050565b600090565b61394c61393f565b61395781848461391a565b505050565b5b8181101561397b57613970600082613944565b60018101905061395d565b5050565b601f8211156139c05761399181613860565b61399a84613875565b810160208510156139a9578190505b6139bd6139b585613875565b83018261395c565b50505b505050565b600082821c905092915050565b60006139e3600019846008026139c5565b1980831691505092915050565b60006139fc83836139d2565b9150826002028217905092915050565b613a1582612be4565b67ffffffffffffffff811115613a2e57613a2d612e1e565b5b613a3882546135dc565b613a4382828561397f565b600060209050601f831160018114613a765760008415613a64578287015190505b613a6e85826139f0565b865550613ad6565b601f198416613a8486613860565b60005b82811015613aac57848901518255600182019150602085019450602081019050613a87565b86831015613ac95784890151613ac5601f8916826139d2565b8355505b6001600288020188555050505b505050505050565b7f496e76616c69642070726f647563742069640000000000000000000000000000600082015250565b6000613b14601283612bef565b9150613b1f82613ade565b602082019050919050565b60006020820190508181036000830152613b4381613b07565b9050919050565b7f4e487b7100000000000000000000000000000000000000000000000000000000600052603260045260246000fd5b7f50726f64756374206f7574206f662073746f636b000000000000000000000000600082015250565b6000613baf601483612bef565b9150613bba82613b79565b602082019050919050565b60006020820190508181036000830152613bde81613ba2565b9050919050565b7f496e73756666696369656e742066756e64730000000000000000000000000000600082015250565b6000613c1b601283612bef565b9150613c2682613be5565b602082019050919050565b60006020820190508181036000830152613c4a81613c0e565b9050919050565b7f4e487b7100000000000000000000000000000000000000000000000000000000600052601160045260246000fd5b6000613c8b82612c96565b9150613c9683612c96565b9250828201905080821115613cae57613cad613c51565b5b92915050565b6000613cbf82612c96565b9150613cca83612c96565b9250828203905081811115613ce257613ce1613c51565b5b92915050565b600081905092915050565b60008154613d00816135dc565b613d0a8186613ce8565b94506001821660008114613d255760018114613d3a57613d6d565b60ff1983168652811515820286019350613d6d565b613d4385613860565b60005b83811015613d6557815481890152600182019150602081019050613d46565b838801955050505b50505092915050565b6000613d828287613cf3565b9150613d8e8286613cf3565b9150613d9a8285613cf3565b9150613da68284613cf3565b915081905095945050505050565b6000613dbf82612be4565b613dc98185613ce8565b9350613dd9818560208601612c00565b80840191505092915050565b6000613df18285613db4565b9150613dfd8284613db4565b91508190509392505050565b600081549050613e18816135dc565b9050919050565b818103613e2d575050613f05565b613e3682613e09565b67ffffffffffffffff811115613e4f57613e4e612e1e565b5b613e5982546135dc565b613e6482828561397f565b6000601f831160018114613e935760008415613e81578287015490505b613e8b85826139f0565b865550613efe565b601f198416613ea187613860565b9650613eac86613860565b60005b82811015613ed457848901548255600182019150600185019450602081019050613eaf565b86831015613ef15784890154613eed601f8916826139d2565b8355505b6001600288020188555050505b5050505050505b565b7f4e487b7100000000000000000000000000000000000000000000000000000000600052603160045260246000fd5b600081519050919050565b600082825260208201905092915050565b6000613f5d82613f36565b613f678185613f41565b9350613f77818560208601612c00565b613f8081612c2a565b840191505092915050565b6000608082019050613fa06000830187612d2b565b613fad6020830186612d2b565b613fba6040830185613045565b8181036060830152613fcc8184613f52565b905095945050505050565b600081519050613fe681612b55565b92915050565b60006020828403121561400257614001612b1f565b5b600061401084828501613fd7565b91505092915050565b600060408201905061402e6000830185612d2b565b61403b6020830184613045565b9392505050565b7f4e487b7100000000000000000000000000000000000000000000000000000000600052601260045260246000fdfea2646970667358221220505ff9daf1f2114efb3ec35bd514d8025430b9a4acfa8422251ebd11f19e59d264736f6c63430008140033a264697066735822122088db6ab791c6475022c7d411b6d339bf493436a13f28c80881021a1f2cc6d62a64736f6c63430008140033",
  "linkReferences": {},
  "deployedLinkReferences": {}
}