{
    "_format": "hh-sol-artifact-1",
    "contractName": "MarketPlace",
    "sourceName": "contracts/MarketPlace.sol",
    "abi": [
        {
            "inputs": [
                {
                    "internalType": "string",
                    "name": "_name",
                    "type": "string"
                },
                {
                    "internalType": "string",
                    "name": "_description",
                    "type": "string"
                }
            ],
            "stateMutability": "nonpayable",
            "type": "constructor"
        },
        {
            "inputs": [
                {
                    "internalType": "address",
                    "name": "sender",
                    "type": "address"
                },
                {
                    "internalType": "uint256",
                    "name": "tokenId",
                    "type": "uint256"
                },
                {
                    "internalType": "address",
                    "name": "owner",
                    "type": "address"
                }
            ],
            "name": "ERC721IncorrectOwner",
            "type": "error"
        },
        {
            "inputs": [
                {
                    "internalType": "address",
                    "name": "operator",
                    "type": "address"
                },
                {
                    "internalType": "uint256",
                    "name": "tokenId",
                    "type": "uint256"
                }
            ],
            "name": "ERC721InsufficientApproval",
            "type": "error"
        },
        {
            "inputs": [
                {
                    "internalType": "address",
                    "name": "approver",
                    "type": "address"
                }
            ],
            "name": "ERC721InvalidApprover",
            "type": "error"
        },
        {
            "inputs": [
                {
                    "internalType": "address",
                    "name": "operator",
                    "type": "address"
                }
            ],
            "name": "ERC721InvalidOperator",
            "type": "error"
        },
        {
            "inputs": [
                {
                    "internalType": "address",
                    "name": "owner",
                    "type": "address"
                }
            ],
            "name": "ERC721InvalidOwner",
            "type": "error"
        },
        {
            "inputs": [
                {
                    "internalType": "address",
                    "name": "receiver",
                    "type": "address"
                }
            ],
            "name": "ERC721InvalidReceiver",
            "type": "error"
        },
        {
            "inputs": [
                {
                    "internalType": "address",
                    "name": "sender",
                    "type": "address"
                }
            ],
            "name": "ERC721InvalidSender",
            "type": "error"
        },
        {
            "inputs": [
                {
                    "internalType": "uint256",
                    "name": "tokenId",
                    "type": "uint256"
                }
            ],
            "name": "ERC721NonexistentToken",
            "type": "error"
        },
        {
            "inputs": [
                {
                    "internalType": "address",
                    "name": "owner",
                    "type": "address"
                }
            ],
            "name": "OwnableInvalidOwner",
            "type": "error"
        },
        {
            "inputs": [
                {
                    "internalType": "address",
                    "name": "account",
                    "type": "address"
                }
            ],
            "name": "OwnableUnauthorizedAccount",
            "type": "error"
        },
        {
            "anonymous": false,
            "inputs": [
                {
                    "indexed": true,
                    "internalType": "address",
                    "name": "owner",
                    "type": "address"
                },
                {
                    "indexed": true,
                    "internalType": "address",
                    "name": "approved",
                    "type": "address"
                },
                {
                    "indexed": true,
                    "internalType": "uint256",
                    "name": "tokenId",
                    "type": "uint256"
                }
            ],
            "name": "Approval",
            "type": "event"
        },
        {
            "anonymous": false,
            "inputs": [
                {
                    "indexed": true,
                    "internalType": "address",
                    "name": "owner",
                    "type": "address"
                },
                {
                    "indexed": true,
                    "internalType": "address",
                    "name": "operator",
                    "type": "address"
                },
                {
                    "indexed": false,
                    "internalType": "bool",
                    "name": "approved",
                    "type": "bool"
                }
            ],
            "name": "ApprovalForAll",
            "type": "event"
        },
        {
            "anonymous": false,
            "inputs": [
                {
                    "indexed": false,
                    "internalType": "uint256",
                    "name": "_fromTokenId",
                    "type": "uint256"
                },
                {
                    "indexed": false,
                    "internalType": "uint256",
                    "name": "_toTokenId",
                    "type": "uint256"
                }
            ],
            "name": "BatchMetadataUpdate",
            "type": "event"
        },
        {
            "anonymous": false,
            "inputs": [
                {
                    "indexed": false,
                    "internalType": "string",
                    "name": "name",
                    "type": "string"
                }
            ],
            "name": "DeleteProduct",
            "type": "event"
        },
        {
            "anonymous": false,
            "inputs": [
                {
                    "indexed": false,
                    "internalType": "string",
                    "name": "name",
                    "type": "string"
                },
                {
                    "indexed": false,
                    "internalType": "uint256",
                    "name": "price",
                    "type": "uint256"
                },
                {
                    "indexed": false,
                    "internalType": "uint256",
                    "name": "quantity",
                    "type": "uint256"
                },
                {
                    "indexed": false,
                    "internalType": "string",
                    "name": "ipfsLink",
                    "type": "string"
                }
            ],
            "name": "EditProduct",
            "type": "event"
        },
        {
            "anonymous": false,
            "inputs": [
                {
                    "indexed": false,
                    "internalType": "uint256",
                    "name": "_tokenId",
                    "type": "uint256"
                }
            ],
            "name": "MetadataUpdate",
            "type": "event"
        },
        {
            "anonymous": false,
            "inputs": [
                {
                    "indexed": true,
                    "internalType": "address",
                    "name": "previousOwner",
                    "type": "address"
                },
                {
                    "indexed": true,
                    "internalType": "address",
                    "name": "newOwner",
                    "type": "address"
                }
            ],
            "name": "OwnershipTransferred",
            "type": "event"
        },
        {
            "anonymous": false,
            "inputs": [
                {
                    "indexed": false,
                    "internalType": "string",
                    "name": "name",
                    "type": "string"
                },
                {
                    "indexed": false,
                    "internalType": "uint256",
                    "name": "price",
                    "type": "uint256"
                },
                {
                    "indexed": false,
                    "internalType": "uint256",
                    "name": "quantity",
                    "type": "uint256"
                },
                {
                    "indexed": false,
                    "internalType": "string",
                    "name": "ipfsLink",
                    "type": "string"
                }
            ],
            "name": "ProductAdded",
            "type": "event"
        },
        {
            "anonymous": false,
            "inputs": [
                {
                    "indexed": true,
                    "internalType": "uint256",
                    "name": "tokenId",
                    "type": "uint256"
                },
                {
                    "indexed": false,
                    "internalType": "uint256",
                    "name": "productId",
                    "type": "uint256"
                },
                {
                    "indexed": false,
                    "internalType": "address",
                    "name": "buyer",
                    "type": "address"
                }
            ],
            "name": "ProductPurchased",
            "type": "event"
        },
        {
            "anonymous": false,
            "inputs": [
                {
                    "indexed": true,
                    "internalType": "address",
                    "name": "from",
                    "type": "address"
                },
                {
                    "indexed": true,
                    "internalType": "address",
                    "name": "to",
                    "type": "address"
                },
                {
                    "indexed": true,
                    "internalType": "uint256",
                    "name": "tokenId",
                    "type": "uint256"
                }
            ],
            "name": "Transfer",
            "type": "event"
        },
        {
            "inputs": [
                {
                    "internalType": "string",
                    "name": "_name",
                    "type": "string"
                },
                {
                    "internalType": "string",
                    "name": "_description",
                    "type": "string"
                },
                {
                    "internalType": "uint256",
                    "name": "_price",
                    "type": "uint256"
                },
                {
                    "internalType": "uint256",
                    "name": "_quantity",
                    "type": "uint256"
                },
                {
                    "internalType": "string",
                    "name": "_ipfsLink",
                    "type": "string"
                }
            ],
            "name": "addProduct",
            "outputs": [],
            "stateMutability": "nonpayable",
            "type": "function"
        },
        {
            "inputs": [
                {
                    "internalType": "address",
                    "name": "to",
                    "type": "address"
                },
                {
                    "internalType": "uint256",
                    "name": "tokenId",
                    "type": "uint256"
                }
            ],
            "name": "approve",
            "outputs": [],
            "stateMutability": "nonpayable",
            "type": "function"
        },
        {
            "inputs": [
                {
                    "internalType": "address",
                    "name": "owner",
                    "type": "address"
                }
            ],
            "name": "balanceOf",
            "outputs": [
                {
                    "internalType": "uint256",
                    "name": "",
                    "type": "uint256"
                }
            ],
            "stateMutability": "view",
            "type": "function"
        },
        {
            "inputs": [
                {
                    "internalType": "uint256",
                    "name": "_id",
                    "type": "uint256"
                }
            ],
            "name": "buyProduct",
            "outputs": [],
            "stateMutability": "payable",
            "type": "function"
        },
        {
            "inputs": [
                {
                    "internalType": "uint256",
                    "name": "_id",
                    "type": "uint256"
                }
            ],
            "name": "deleteProduct",
            "outputs": [],
            "stateMutability": "nonpayable",
            "type": "function"
        },
        {
            "inputs": [
                {
                    "internalType": "uint256",
                    "name": "_id",
                    "type": "uint256"
                },
                {
                    "internalType": "string",
                    "name": "_name",
                    "type": "string"
                },
                {
                    "internalType": "string",
                    "name": "_description",
                    "type": "string"
                },
                {
                    "internalType": "uint256",
                    "name": "_price",
                    "type": "uint256"
                },
                {
                    "internalType": "uint256",
                    "name": "_quantity",
                    "type": "uint256"
                },
                {
                    "internalType": "string",
                    "name": "_ipfsLink",
                    "type": "string"
                }
            ],
            "name": "editProduct",
            "outputs": [],
            "stateMutability": "nonpayable",
            "type": "function"
        },
        {
            "inputs": [
                {
                    "internalType": "uint256",
                    "name": "tokenId",
                    "type": "uint256"
                }
            ],
            "name": "getApproved",
            "outputs": [
                {
                    "internalType": "address",
                    "name": "",
                    "type": "address"
                }
            ],
            "stateMutability": "view",
            "type": "function"
        },
        {
            "inputs": [
                {
                    "internalType": "uint256",
                    "name": "_id",
                    "type": "uint256"
                }
            ],
            "name": "getProduct",
            "outputs": [
                {
                    "components": [
                        {
                            "internalType": "string",
                            "name": "name",
                            "type": "string"
                        },
                        {
                            "internalType": "string",
                            "name": "description",
                            "type": "string"
                        },
                        {
                            "internalType": "uint256",
                            "name": "price",
                            "type": "uint256"
                        },
                        {
                            "internalType": "uint256",
                            "name": "quantity",
                            "type": "uint256"
                        },
                        {
                            "internalType": "string",
                            "name": "ipfsLink",
                            "type": "string"
                        },
                        {
                            "internalType": "uint256",
                            "name": "sold",
                            "type": "uint256"
                        }
                    ],
                    "internalType": "struct MarketPlace.Product",
                    "name": "",
                    "type": "tuple"
                }
            ],
            "stateMutability": "view",
            "type": "function"
        },
        {
            "inputs": [],
            "name": "getProducts",
            "outputs": [
                {
                    "components": [
                        {
                            "internalType": "string",
                            "name": "name",
                            "type": "string"
                        },
                        {
                            "internalType": "string",
                            "name": "description",
                            "type": "string"
                        },
                        {
                            "internalType": "uint256",
                            "name": "price",
                            "type": "uint256"
                        },
                        {
                            "internalType": "uint256",
                            "name": "quantity",
                            "type": "uint256"
                        },
                        {
                            "internalType": "string",
                            "name": "ipfsLink",
                            "type": "string"
                        },
                        {
                            "internalType": "uint256",
                            "name": "sold",
                            "type": "uint256"
                        }
                    ],
                    "internalType": "struct MarketPlace.Product[]",
                    "name": "",
                    "type": "tuple[]"
                }
            ],
            "stateMutability": "view",
            "type": "function"
        },
        {
            "inputs": [
                {
                    "internalType": "address",
                    "name": "owner",
                    "type": "address"
                },
                {
                    "internalType": "address",
                    "name": "operator",
                    "type": "address"
                }
            ],
            "name": "isApprovedForAll",
            "outputs": [
                {
                    "internalType": "bool",
                    "name": "",
                    "type": "bool"
                }
            ],
            "stateMutability": "view",
            "type": "function"
        },
        {
            "inputs": [],
            "name": "marketPlaceDescription",
            "outputs": [
                {
                    "internalType": "string",
                    "name": "",
                    "type": "string"
                }
            ],
            "stateMutability": "view",
            "type": "function"
        },
        {
            "inputs": [],
            "name": "marketPlaceName",
            "outputs": [
                {
                    "internalType": "string",
                    "name": "",
                    "type": "string"
                }
            ],
            "stateMutability": "view",
            "type": "function"
        },
        {
            "inputs": [],
            "name": "name",
            "outputs": [
                {
                    "internalType": "string",
                    "name": "",
                    "type": "string"
                }
            ],
            "stateMutability": "view",
            "type": "function"
        },
        {
            "inputs": [],
            "name": "owner",
            "outputs": [
                {
                    "internalType": "address",
                    "name": "",
                    "type": "address"
                }
            ],
            "stateMutability": "view",
            "type": "function"
        },
        {
            "inputs": [
                {
                    "internalType": "uint256",
                    "name": "tokenId",
                    "type": "uint256"
                }
            ],
            "name": "ownerOf",
            "outputs": [
                {
                    "internalType": "address",
                    "name": "",
                    "type": "address"
                }
            ],
            "stateMutability": "view",
            "type": "function"
        },
        {
            "inputs": [],
            "name": "renounceOwnership",
            "outputs": [],
            "stateMutability": "nonpayable",
            "type": "function"
        },
        {
            "inputs": [
                {
                    "internalType": "address",
                    "name": "from",
                    "type": "address"
                },
                {
                    "internalType": "address",
                    "name": "to",
                    "type": "address"
                },
                {
                    "internalType": "uint256",
                    "name": "tokenId",
                    "type": "uint256"
                }
            ],
            "name": "safeTransferFrom",
            "outputs": [],
            "stateMutability": "nonpayable",
            "type": "function"
        },
        {
            "inputs": [
                {
                    "internalType": "address",
                    "name": "from",
                    "type": "address"
                },
                {
                    "internalType": "address",
                    "name": "to",
                    "type": "address"
                },
                {
                    "internalType": "uint256",
                    "name": "tokenId",
                    "type": "uint256"
                },
                {
                    "internalType": "bytes",
                    "name": "data",
                    "type": "bytes"
                }
            ],
            "name": "safeTransferFrom",
            "outputs": [],
            "stateMutability": "nonpayable",
            "type": "function"
        },
        {
            "inputs": [
                {
                    "internalType": "address",
                    "name": "operator",
                    "type": "address"
                },
                {
                    "internalType": "bool",
                    "name": "approved",
                    "type": "bool"
                }
            ],
            "name": "setApprovalForAll",
            "outputs": [],
            "stateMutability": "nonpayable",
            "type": "function"
        },
        {
            "inputs": [
                {
                    "internalType": "bytes4",
                    "name": "interfaceId",
                    "type": "bytes4"
                }
            ],
            "name": "supportsInterface",
            "outputs": [
                {
                    "internalType": "bool",
                    "name": "",
                    "type": "bool"
                }
            ],
            "stateMutability": "view",
            "type": "function"
        },
        {
            "inputs": [],
            "name": "symbol",
            "outputs": [
                {
                    "internalType": "string",
                    "name": "",
                    "type": "string"
                }
            ],
            "stateMutability": "view",
            "type": "function"
        },
        {
            "inputs": [
                {
                    "internalType": "uint256",
                    "name": "tokenId",
                    "type": "uint256"
                }
            ],
            "name": "tokenURI",
            "outputs": [
                {
                    "internalType": "string",
                    "name": "",
                    "type": "string"
                }
            ],
            "stateMutability": "view",
            "type": "function"
        },
        {
            "inputs": [
                {
                    "internalType": "address",
                    "name": "from",
                    "type": "address"
                },
                {
                    "internalType": "address",
                    "name": "to",
                    "type": "address"
                },
                {
                    "internalType": "uint256",
                    "name": "tokenId",
                    "type": "uint256"
                }
            ],
            "name": "transferFrom",
            "outputs": [],
            "stateMutability": "nonpayable",
            "type": "function"
        },
        {
            "inputs": [
                {
                    "internalType": "address",
                    "name": "newOwner",
                    "type": "address"
                }
            ],
            "name": "transferOwnership",
            "outputs": [],
            "stateMutability": "nonpayable",
            "type": "function"
        }
    ],
    "bytecode": "0x60806040526000600b553480156200001657600080fd5b50604051620049c8380380620049c883398181016040528101906200003c9190620003d9565b6040518060400160405280601081526020017f4d61726b6574706c616365546f6b656e000000000000000000000000000000008152506040518060400160405280600381526020017f4d5054000000000000000000000000000000000000000000000000000000000081525033600073ffffffffffffffffffffffffffffffffffffffff168173ffffffffffffffffffffffffffffffffffffffff16036200011e5760006040517f1e4fbdf7000000000000000000000000000000000000000000000000000000008152600401620001159190620004a3565b60405180910390fd5b6200012f816200018260201b60201c565b5081600190816200014191906200070b565b5080600290816200015391906200070b565b50505081600990816200016791906200070b565b5080600a90816200017991906200070b565b505050620007f2565b60008060009054906101000a900473ffffffffffffffffffffffffffffffffffffffff169050816000806101000a81548173ffffffffffffffffffffffffffffffffffffffff021916908373ffffffffffffffffffffffffffffffffffffffff1602179055508173ffffffffffffffffffffffffffffffffffffffff168173ffffffffffffffffffffffffffffffffffffffff167f8be0079c531659141344cd1fd0a4f28419497f9722a3daafe3b4186f6b6457e060405160405180910390a35050565b6000604051905090565b600080fd5b600080fd5b600080fd5b600080fd5b6000601f19601f8301169050919050565b7f4e487b7100000000000000000000000000000000000000000000000000000000600052604160045260246000fd5b620002af8262000264565b810181811067ffffffffffffffff82111715620002d157620002d062000275565b5b80604052505050565b6000620002e662000246565b9050620002f48282620002a4565b919050565b600067ffffffffffffffff82111562000317576200031662000275565b5b620003228262000264565b9050602081019050919050565b60005b838110156200034f57808201518184015260208101905062000332565b60008484015250505050565b6000620003726200036c84620002f9565b620002da565b9050828152602081018484840111156200039157620003906200025f565b5b6200039e8482856200032f565b509392505050565b600082601f830112620003be57620003bd6200025a565b5b8151620003d08482602086016200035b565b91505092915050565b60008060408385031215620003f357620003f262000250565b5b600083015167ffffffffffffffff81111562000414576200041362000255565b5b6200042285828601620003a6565b925050602083015167ffffffffffffffff81111562000446576200044562000255565b5b6200045485828601620003a6565b9150509250929050565b600073ffffffffffffffffffffffffffffffffffffffff82169050919050565b60006200048b826200045e565b9050919050565b6200049d816200047e565b82525050565b6000602082019050620004ba600083018462000492565b92915050565b600081519050919050565b7f4e487b7100000000000000000000000000000000000000000000000000000000600052602260045260246000fd5b600060028204905060018216806200051357607f821691505b602082108103620005295762000528620004cb565b5b50919050565b60008190508160005260206000209050919050565b60006020601f8301049050919050565b600082821b905092915050565b600060088302620005937fffffffffffffffffffffffffffffffffffffffffffffffffffffffffffffffff8262000554565b6200059f868362000554565b95508019841693508086168417925050509392505050565b6000819050919050565b6000819050919050565b6000620005ec620005e6620005e084620005b7565b620005c1565b620005b7565b9050919050565b6000819050919050565b6200060883620005cb565b620006206200061782620005f3565b84845462000561565b825550505050565b600090565b6200063762000628565b62000644818484620005fd565b505050565b5b818110156200066c57620006606000826200062d565b6001810190506200064a565b5050565b601f821115620006bb5762000685816200052f565b620006908462000544565b81016020851015620006a0578190505b620006b8620006af8562000544565b83018262000649565b50505b505050565b600082821c905092915050565b6000620006e060001984600802620006c0565b1980831691505092915050565b6000620006fb8383620006cd565b9150826002028217905092915050565b6200071682620004c0565b67ffffffffffffffff81111562000732576200073162000275565b5b6200073e8254620004fa565b6200074b82828562000670565b600060209050601f8311600181146200078357600084156200076e578287015190505b6200077a8582620006ed565b865550620007ea565b601f19841662000793866200052f565b60005b82811015620007bd5784890151825560018201915060208501945060208101905062000796565b86831015620007dd5784890151620007d9601f891682620006cd565b8355505b6001600288020188555050505b505050505050565b6141c680620008026000396000f3fe60806040526004361061014b5760003560e01c80638ef291e9116100b6578063c87b56dd1161006f578063c87b56dd14610481578063dbae7ba3146104be578063e985e9c5146104e9578063ed90c7b714610526578063f18f8b6d1461054f578063f2fde38b146105785761014b565b80638ef291e91461037157806395d89b411461039c578063a22cb465146103c7578063b88d4fde146103f0578063b9db15b414610419578063c29b2f20146104565761014b565b80636352211e116101085780636352211e146102705780636daf0fbb146102ad57806370a08231146102d6578063715018a6146103135780638642269e1461032a5780638da5cb5b146103465761014b565b806301ffc9a71461015057806306fdde031461018d578063081812fc146101b8578063095ea7b3146101f557806323b872dd1461021e57806342842e0e14610247575b600080fd5b34801561015c57600080fd5b5061017760048036038101906101729190612ce5565b6105a1565b6040516101849190612d2d565b60405180910390f35b34801561019957600080fd5b506101a2610602565b6040516101af9190612dd8565b60405180910390f35b3480156101c457600080fd5b506101df60048036038101906101da9190612e30565b610694565b6040516101ec9190612e9e565b60405180910390f35b34801561020157600080fd5b5061021c60048036038101906102179190612ee5565b6106b0565b005b34801561022a57600080fd5b5061024560048036038101906102409190612f25565b6106c6565b005b34801561025357600080fd5b5061026e60048036038101906102699190612f25565b6107c8565b005b34801561027c57600080fd5b5061029760048036038101906102929190612e30565b6107e8565b6040516102a49190612e9e565b60405180910390f35b3480156102b957600080fd5b506102d460048036038101906102cf91906130ad565b6107fa565b005b3480156102e257600080fd5b506102fd60048036038101906102f8919061317c565b610a4b565b60405161030a91906131b8565b60405180910390f35b34801561031f57600080fd5b50610328610b05565b005b610344600480360381019061033f9190612e30565b610b19565b005b34801561035257600080fd5b5061035b610e54565b6040516103689190612e9e565b60405180910390f35b34801561037d57600080fd5b50610386610e7d565b6040516103939190612dd8565b60405180910390f35b3480156103a857600080fd5b506103b1610f0b565b6040516103be9190612dd8565b60405180910390f35b3480156103d357600080fd5b506103ee60048036038101906103e991906131ff565b610f9d565b005b3480156103fc57600080fd5b50610417600480360381019061041291906132e0565b610fb3565b005b34801561042557600080fd5b50610440600480360381019061043b9190612e30565b610fd0565b60405161044d9190613453565b60405180910390f35b34801561046257600080fd5b5061046b611234565b60405161047891906135ce565b60405180910390f35b34801561048d57600080fd5b506104a860048036038101906104a39190612e30565b611467565b6040516104b59190612dd8565b60405180910390f35b3480156104ca57600080fd5b506104d361157a565b6040516104e09190612dd8565b60405180910390f35b3480156104f557600080fd5b50610510600480360381019061050b91906135f0565b611608565b60405161051d9190612d2d565b60405180910390f35b34801561053257600080fd5b5061054d60048036038101906105489190612e30565b61169c565b005b34801561055b57600080fd5b5061057660048036038101906105719190613630565b61181b565b005b34801561058457600080fd5b5061059f600480360381019061059a919061317c565b611af3565b005b6000634906490660e01b7bffffffffffffffffffffffffffffffffffffffffffffffffffffffff1916827bffffffffffffffffffffffffffffffffffffffffffffffffffffffff191614806105fb57506105fa82611b79565b5b9050919050565b60606001805461061190613740565b80601f016020809104026020016040519081016040528092919081815260200182805461063d90613740565b801561068a5780601f1061065f5761010080835404028352916020019161068a565b820191906000526020600020905b81548152906001019060200180831161066d57829003601f168201915b5050505050905090565b600061069f82611c5b565b506106a982611ce3565b9050919050565b6106c282826106bd611d20565b611d28565b5050565b600073ffffffffffffffffffffffffffffffffffffffff168273ffffffffffffffffffffffffffffffffffffffff16036107385760006040517f64a0ae9200000000000000000000000000000000000000000000000000000000815260040161072f9190612e9e565b60405180910390fd5b600061074c8383610747611d20565b611d3a565b90508373ffffffffffffffffffffffffffffffffffffffff168173ffffffffffffffffffffffffffffffffffffffff16146107c2578382826040517f64283d7b0000000000000000000000000000000000000000000000000000000081526004016107b993929190613771565b60405180910390fd5b50505050565b6107e383838360405180602001604052806000815250610fb3565b505050565b60006107f382611c5b565b9050919050565b600085511161083e576040517f08c379a0000000000000000000000000000000000000000000000000000000008152600401610835906137f4565b60405180910390fd5b60008311610881576040517f08c379a000000000000000000000000000000000000000000000000000000000815260040161087890613860565b60405180910390fd5b60008451116108c5576040517f08c379a00000000000000000000000000000000000000000000000000000000081526004016108bc906138cc565b60405180910390fd5b60008211610908576040517f08c379a00000000000000000000000000000000000000000000000000000000081526004016108ff90613938565b60405180910390fd5b600081511161094c576040517f08c379a0000000000000000000000000000000000000000000000000000000008152600401610943906139a4565b60405180910390fd5b60086040518060c001604052808781526020018681526020018581526020018481526020018381526020016000815250908060018154018082558091505060019003906000526020600020906006020160009091909190915060008201518160000190816109ba9190613b70565b5060208201518160010190816109d09190613b70565b50604082015181600201556060820151816003015560808201518160040190816109fa9190613b70565b5060a0820151816005015550507fb15f1a0c5e066bde8b65355e8ff33b3e6ff200229ec7b92aacb6bc2dc0f7ff9b85848484604051610a3c9493929190613c42565b60405180910390a15050505050565b60008073ffffffffffffffffffffffffffffffffffffffff168273ffffffffffffffffffffffffffffffffffffffff1603610abe5760006040517f89c62b64000000000000000000000000000000000000000000000000000000008152600401610ab59190612e9e565b60405180910390fd5b600460008373ffffffffffffffffffffffffffffffffffffffff1673ffffffffffffffffffffffffffffffffffffffff168152602001908152602001600020549050919050565b610b0d611f54565b610b176000611fdb565b565b60008110158015610b2e575060088054905081105b610b6d576040517f08c379a0000000000000000000000000000000000000000000000000000000008152600401610b6490613ce1565b60405180910390fd5b600060088281548110610b8357610b82613d01565b5b90600052602060002090600602016003015411610bd5576040517f08c379a0000000000000000000000000000000000000000000000000000000008152600401610bcc90613d7c565b60405180910390fd5b60088181548110610be957610be8613d01565b5b906000526020600020906006020160020154341015610c3d576040517f08c379a0000000000000000000000000000000000000000000000000000000008152600401610c3490613de8565b60405180910390fd5b6000610c47610e54565b90508073ffffffffffffffffffffffffffffffffffffffff166108fc60088481548110610c7757610c76613d01565b5b9060005260206000209060060201600201549081150290604051600060405180830381858888f19350505050158015610cb4573d6000803e3d6000fd5b50600060088381548110610ccb57610cca613d01565b5b90600052602060002090600602016000018054610ce790613740565b80601f0160208091040260200160405190810160405280929190818152602001828054610d1390613740565b8015610d605780601f10610d3557610100808354040283529160200191610d60565b820191906000526020600020905b815481529060010190602001808311610d4357829003601f168201915b50505050509050610d73600b548261209f565b610d7f33600b546120fb565b600160088481548110610d9557610d94613d01565b5b90600052602060002090600602016005016000828254610db59190613e37565b92505081905550600160088481548110610dd257610dd1613d01565b5b90600052602060002090600602016003016000828254610df29190613e6b565b925050819055506001600b6000828254610e0c9190613e37565b92505081905550600b547fcf56b0adeb8d78b1faf3ec7294369603647cda5633357436d89fb3e653fabf818433604051610e47929190613e9f565b60405180910390a2505050565b60008060009054906101000a900473ffffffffffffffffffffffffffffffffffffffff16905090565b60098054610e8a90613740565b80601f0160208091040260200160405190810160405280929190818152602001828054610eb690613740565b8015610f035780601f10610ed857610100808354040283529160200191610f03565b820191906000526020600020905b815481529060010190602001808311610ee657829003601f168201915b505050505081565b606060028054610f1a90613740565b80601f0160208091040260200160405190810160405280929190818152602001828054610f4690613740565b8015610f935780601f10610f6857610100808354040283529160200191610f93565b820191906000526020600020905b815481529060010190602001808311610f7657829003601f168201915b5050505050905090565b610faf610fa8611d20565b8383612119565b5050565b610fbe8484846106c6565b610fca84848484612288565b50505050565b610fd8612be6565b60008210158015610fed575060088054905082105b61102c576040517f08c379a000000000000000000000000000000000000000000000000000000000815260040161102390613ce1565b60405180910390fd5b600882815481106110405761103f613d01565b5b90600052602060002090600602016040518060c001604052908160008201805461106990613740565b80601f016020809104026020016040519081016040528092919081815260200182805461109590613740565b80156110e25780601f106110b7576101008083540402835291602001916110e2565b820191906000526020600020905b8154815290600101906020018083116110c557829003601f168201915b505050505081526020016001820180546110fb90613740565b80601f016020809104026020016040519081016040528092919081815260200182805461112790613740565b80156111745780601f1061114957610100808354040283529160200191611174565b820191906000526020600020905b81548152906001019060200180831161115757829003601f168201915b5050505050815260200160028201548152602001600382015481526020016004820180546111a190613740565b80601f01602080910402602001604051908101604052809291908181526020018280546111cd90613740565b801561121a5780601f106111ef5761010080835404028352916020019161121a565b820191906000526020600020905b8154815290600101906020018083116111fd57829003601f168201915b505050505081526020016005820154815250509050919050565b60606008805480602002602001604051908101604052809291908181526020016000905b8282101561145e57838290600052602060002090600602016040518060c001604052908160008201805461128b90613740565b80601f01602080910402602001604051908101604052809291908181526020018280546112b790613740565b80156113045780601f106112d957610100808354040283529160200191611304565b820191906000526020600020905b8154815290600101906020018083116112e757829003601f168201915b5050505050815260200160018201805461131d90613740565b80601f016020809104026020016040519081016040528092919081815260200182805461134990613740565b80156113965780601f1061136b57610100808354040283529160200191611396565b820191906000526020600020905b81548152906001019060200180831161137957829003601f168201915b5050505050815260200160028201548152602001600382015481526020016004820180546113c390613740565b80601f01602080910402602001604051908101604052809291908181526020018280546113ef90613740565b801561143c5780601f106114115761010080835404028352916020019161143c565b820191906000526020600020905b81548152906001019060200180831161141f57829003601f168201915b5050505050815260200160058201548152505081526020019060010190611258565b50505050905090565b606061147282611c5b565b50600060076000848152602001908152602001600020805461149390613740565b80601f01602080910402602001604051908101604052809291908181526020018280546114bf90613740565b801561150c5780601f106114e15761010080835404028352916020019161150c565b820191906000526020600020905b8154815290600101906020018083116114ef57829003601f168201915b50505050509050600061151d61243f565b90506000815103611532578192505050611575565b60008251111561156757808260405160200161154f929190613f04565b60405160208183030381529060405292505050611575565b61157084612456565b925050505b919050565b600a805461158790613740565b80601f01602080910402602001604051908101604052809291908181526020018280546115b390613740565b80156116005780601f106115d557610100808354040283529160200191611600565b820191906000526020600020905b8154815290600101906020018083116115e357829003601f168201915b505050505081565b6000600660008473ffffffffffffffffffffffffffffffffffffffff1673ffffffffffffffffffffffffffffffffffffffff16815260200190815260200160002060008373ffffffffffffffffffffffffffffffffffffffff1673ffffffffffffffffffffffffffffffffffffffff16815260200190815260200160002060009054906101000a900460ff16905092915050565b600081101580156116b1575060088054905081105b6116f0576040517f08c379a00000000000000000000000000000000000000000000000000000000081526004016116e790613ce1565b60405180910390fd5b600860016008805490506117049190613e6b565b8154811061171557611714613d01565b5b90600052602060002090600602016008828154811061173757611736613d01565b5b9060005260206000209060060201600082018160000190816117599190613f3e565b506001820181600101908161176e9190613f3e565b506002820154816002015560038201548160030155600482018160040190816117979190613f3e565b506005820154816005015590505060088054806117b7576117b6614026565b5b6001900381819060005260206000209060060201600080820160006117dc9190612c1c565b6001820160006117ec9190612c1c565b6002820160009055600382016000905560048201600061180c9190612c1c565b60058201600090555050905550565b60008610158015611830575060088054905086105b61186f576040517f08c379a000000000000000000000000000000000000000000000000000000000815260040161186690613ce1565b60405180910390fd5b60008551116118b3576040517f08c379a00000000000000000000000000000000000000000000000000000000081526004016118aa906137f4565b60405180910390fd5b60008451116118f7576040517f08c379a00000000000000000000000000000000000000000000000000000000081526004016118ee906138cc565b60405180910390fd5b6000831161193a576040517f08c379a000000000000000000000000000000000000000000000000000000000815260040161193190613860565b60405180910390fd5b6000821161197d576040517f08c379a000000000000000000000000000000000000000000000000000000000815260040161197490613938565b60405180910390fd5b60008151116119c1576040517f08c379a00000000000000000000000000000000000000000000000000000000081526004016119b8906139a4565b60405180910390fd5b84600887815481106119d6576119d5613d01565b5b906000526020600020906006020160000190816119f39190613b70565b508260088781548110611a0957611a08613d01565b5b9060005260206000209060060201600201819055508360088781548110611a3357611a32613d01565b5b90600052602060002090600602016001019081611a509190613b70565b508160088781548110611a6657611a65613d01565b5b9060005260206000209060060201600301819055508060088781548110611a9057611a8f613d01565b5b90600052602060002090600602016004019081611aad9190613b70565b507fce753a1b28da9faff021b064037bbe0e890d403dce67f253977168d34327235c85848484604051611ae39493929190613c42565b60405180910390a1505050505050565b611afb611f54565b600073ffffffffffffffffffffffffffffffffffffffff168173ffffffffffffffffffffffffffffffffffffffff1603611b6d5760006040517f1e4fbdf7000000000000000000000000000000000000000000000000000000008152600401611b649190612e9e565b60405180910390fd5b611b7681611fdb565b50565b60007f80ac58cd000000000000000000000000000000000000000000000000000000007bffffffffffffffffffffffffffffffffffffffffffffffffffffffff1916827bffffffffffffffffffffffffffffffffffffffffffffffffffffffff19161480611c4457507f5b5e139f000000000000000000000000000000000000000000000000000000007bffffffffffffffffffffffffffffffffffffffffffffffffffffffff1916827bffffffffffffffffffffffffffffffffffffffffffffffffffffffff1916145b80611c545750611c53826124bf565b5b9050919050565b600080611c6783612529565b9050600073ffffffffffffffffffffffffffffffffffffffff168173ffffffffffffffffffffffffffffffffffffffff1603611cda57826040517f7e273289000000000000000000000000000000000000000000000000000000008152600401611cd191906131b8565b60405180910390fd5b80915050919050565b60006005600083815260200190815260200160002060009054906101000a900473ffffffffffffffffffffffffffffffffffffffff169050919050565b600033905090565b611d358383836001612566565b505050565b600080611d4684612529565b9050600073ffffffffffffffffffffffffffffffffffffffff168373ffffffffffffffffffffffffffffffffffffffff1614611d8857611d8781848661272b565b5b600073ffffffffffffffffffffffffffffffffffffffff168173ffffffffffffffffffffffffffffffffffffffff1614611e1957611dca600085600080612566565b6001600460008373ffffffffffffffffffffffffffffffffffffffff1673ffffffffffffffffffffffffffffffffffffffff168152602001908152602001600020600082825403925050819055505b600073ffffffffffffffffffffffffffffffffffffffff168573ffffffffffffffffffffffffffffffffffffffff1614611e9c576001600460008773ffffffffffffffffffffffffffffffffffffffff1673ffffffffffffffffffffffffffffffffffffffff168152602001908152602001600020600082825401925050819055505b846003600086815260200190815260200160002060006101000a81548173ffffffffffffffffffffffffffffffffffffffff021916908373ffffffffffffffffffffffffffffffffffffffff160217905550838573ffffffffffffffffffffffffffffffffffffffff168273ffffffffffffffffffffffffffffffffffffffff167fddf252ad1be2c89b69c2b068fc378daa952ba7f163c4a11628f55a4df523b3ef60405160405180910390a4809150509392505050565b611f5c611d20565b73ffffffffffffffffffffffffffffffffffffffff16611f7a610e54565b73ffffffffffffffffffffffffffffffffffffffff1614611fd957611f9d611d20565b6040517f118cdaa7000000000000000000000000000000000000000000000000000000008152600401611fd09190612e9e565b60405180910390fd5b565b60008060009054906101000a900473ffffffffffffffffffffffffffffffffffffffff169050816000806101000a81548173ffffffffffffffffffffffffffffffffffffffff021916908373ffffffffffffffffffffffffffffffffffffffff1602179055508173ffffffffffffffffffffffffffffffffffffffff168173ffffffffffffffffffffffffffffffffffffffff167f8be0079c531659141344cd1fd0a4f28419497f9722a3daafe3b4186f6b6457e060405160405180910390a35050565b806007600084815260200190815260200160002090816120bf9190613b70565b507ff8e1a15aba9398e019f0b49df1a4fde98ee17ae345cb5f6b5e2c27f5033e8ce7826040516120ef91906131b8565b60405180910390a15050565b6121158282604051806020016040528060008152506127ef565b5050565b600073ffffffffffffffffffffffffffffffffffffffff168273ffffffffffffffffffffffffffffffffffffffff160361218a57816040517f5b08ba180000000000000000000000000000000000000000000000000000000081526004016121819190612e9e565b60405180910390fd5b80600660008573ffffffffffffffffffffffffffffffffffffffff1673ffffffffffffffffffffffffffffffffffffffff16815260200190815260200160002060008473ffffffffffffffffffffffffffffffffffffffff1673ffffffffffffffffffffffffffffffffffffffff16815260200190815260200160002060006101000a81548160ff0219169083151502179055508173ffffffffffffffffffffffffffffffffffffffff168373ffffffffffffffffffffffffffffffffffffffff167f17307eab39ab6107e8899845ad3d59bd9653f200f220920489ca2b5937696c318360405161227b9190612d2d565b60405180910390a3505050565b60008373ffffffffffffffffffffffffffffffffffffffff163b1115612439578273ffffffffffffffffffffffffffffffffffffffff1663150b7a026122cc611d20565b8685856040518563ffffffff1660e01b81526004016122ee94939291906140aa565b6020604051808303816000875af192505050801561232a57506040513d601f19601f82011682018060405250810190612327919061410b565b60015b6123ae573d806000811461235a576040519150601f19603f3d011682016040523d82523d6000602084013e61235f565b606091505b5060008151036123a657836040517f64a0ae9200000000000000000000000000000000000000000000000000000000815260040161239d9190612e9e565b60405180910390fd5b805181602001fd5b63150b7a0260e01b7bffffffffffffffffffffffffffffffffffffffffffffffffffffffff1916817bffffffffffffffffffffffffffffffffffffffffffffffffffffffff19161461243757836040517f64a0ae9200000000000000000000000000000000000000000000000000000000815260040161242e9190612e9e565b60405180910390fd5b505b50505050565b606060405180602001604052806000815250905090565b606061246182611c5b565b50600061246c61243f565b9050600081511161248c57604051806020016040528060008152506124b7565b806124968461280b565b6040516020016124a7929190613f04565b6040516020818303038152906040525b915050919050565b60007f01ffc9a7000000000000000000000000000000000000000000000000000000007bffffffffffffffffffffffffffffffffffffffffffffffffffffffff1916827bffffffffffffffffffffffffffffffffffffffffffffffffffffffff1916149050919050565b60006003600083815260200190815260200160002060009054906101000a900473ffffffffffffffffffffffffffffffffffffffff169050919050565b808061259f5750600073ffffffffffffffffffffffffffffffffffffffff168273ffffffffffffffffffffffffffffffffffffffff1614155b156126d35760006125af84611c5b565b9050600073ffffffffffffffffffffffffffffffffffffffff168373ffffffffffffffffffffffffffffffffffffffff161415801561261a57508273ffffffffffffffffffffffffffffffffffffffff168173ffffffffffffffffffffffffffffffffffffffff1614155b801561262d575061262b8184611608565b155b1561266f57826040517fa9fbf51f0000000000000000000000000000000000000000000000000000000081526004016126669190612e9e565b60405180910390fd5b81156126d157838573ffffffffffffffffffffffffffffffffffffffff168273ffffffffffffffffffffffffffffffffffffffff167f8c5be1e5ebec7d5bd14f71427d1e84f3dd0314c0f7b2291e5b200ac8c7c3b92560405160405180910390a45b505b836005600085815260200190815260200160002060006101000a81548173ffffffffffffffffffffffffffffffffffffffff021916908373ffffffffffffffffffffffffffffffffffffffff16021790555050505050565b6127368383836128d9565b6127ea57600073ffffffffffffffffffffffffffffffffffffffff168373ffffffffffffffffffffffffffffffffffffffff16036127ab57806040517f7e2732890000000000000000000000000000000000000000000000000000000081526004016127a291906131b8565b60405180910390fd5b81816040517f177e802f0000000000000000000000000000000000000000000000000000000081526004016127e1929190614138565b60405180910390fd5b505050565b6127f9838361299a565b6128066000848484612288565b505050565b60606000600161281a84612a93565b01905060008167ffffffffffffffff81111561283957612838612f82565b5b6040519080825280601f01601f19166020018201604052801561286b5781602001600182028036833780820191505090505b509050600082602001820190505b6001156128ce578080600190039150507f3031323334353637383961626364656600000000000000000000000000000000600a86061a8153600a85816128c2576128c1614161565b5b04945060008503612879575b819350505050919050565b60008073ffffffffffffffffffffffffffffffffffffffff168373ffffffffffffffffffffffffffffffffffffffff161415801561299157508273ffffffffffffffffffffffffffffffffffffffff168473ffffffffffffffffffffffffffffffffffffffff16148061295257506129518484611608565b5b8061299057508273ffffffffffffffffffffffffffffffffffffffff1661297883611ce3565b73ffffffffffffffffffffffffffffffffffffffff16145b5b90509392505050565b600073ffffffffffffffffffffffffffffffffffffffff168273ffffffffffffffffffffffffffffffffffffffff1603612a0c5760006040517f64a0ae92000000000000000000000000000000000000000000000000000000008152600401612a039190612e9e565b60405180910390fd5b6000612a1a83836000611d3a565b9050600073ffffffffffffffffffffffffffffffffffffffff168173ffffffffffffffffffffffffffffffffffffffff1614612a8e5760006040517f73c6ac6e000000000000000000000000000000000000000000000000000000008152600401612a859190612e9e565b60405180910390fd5b505050565b600080600090507a184f03e93ff9f4daa797ed6e38ed64bf6a1f0100000000000000008310612af1577a184f03e93ff9f4daa797ed6e38ed64bf6a1f0100000000000000008381612ae757612ae6614161565b5b0492506040810190505b6d04ee2d6d415b85acef81000000008310612b2e576d04ee2d6d415b85acef81000000008381612b2457612b23614161565b5b0492506020810190505b662386f26fc100008310612b5d57662386f26fc100008381612b5357612b52614161565b5b0492506010810190505b6305f5e1008310612b86576305f5e1008381612b7c57612b7b614161565b5b0492506008810190505b6127108310612bab576127108381612ba157612ba0614161565b5b0492506004810190505b60648310612bce5760648381612bc457612bc3614161565b5b0492506002810190505b600a8310612bdd576001810190505b80915050919050565b6040518060c001604052806060815260200160608152602001600081526020016000815260200160608152602001600081525090565b508054612c2890613740565b6000825580601f10612c3a5750612c59565b601f016020900490600052602060002090810190612c589190612c5c565b5b50565b5b80821115612c75576000816000905550600101612c5d565b5090565b6000604051905090565b600080fd5b600080fd5b60007fffffffff0000000000000000000000000000000000000000000000000000000082169050919050565b612cc281612c8d565b8114612ccd57600080fd5b50565b600081359050612cdf81612cb9565b92915050565b600060208284031215612cfb57612cfa612c83565b5b6000612d0984828501612cd0565b91505092915050565b60008115159050919050565b612d2781612d12565b82525050565b6000602082019050612d426000830184612d1e565b92915050565b600081519050919050565b600082825260208201905092915050565b60005b83811015612d82578082015181840152602081019050612d67565b60008484015250505050565b6000601f19601f8301169050919050565b6000612daa82612d48565b612db48185612d53565b9350612dc4818560208601612d64565b612dcd81612d8e565b840191505092915050565b60006020820190508181036000830152612df28184612d9f565b905092915050565b6000819050919050565b612e0d81612dfa565b8114612e1857600080fd5b50565b600081359050612e2a81612e04565b92915050565b600060208284031215612e4657612e45612c83565b5b6000612e5484828501612e1b565b91505092915050565b600073ffffffffffffffffffffffffffffffffffffffff82169050919050565b6000612e8882612e5d565b9050919050565b612e9881612e7d565b82525050565b6000602082019050612eb36000830184612e8f565b92915050565b612ec281612e7d565b8114612ecd57600080fd5b50565b600081359050612edf81612eb9565b92915050565b60008060408385031215612efc57612efb612c83565b5b6000612f0a85828601612ed0565b9250506020612f1b85828601612e1b565b9150509250929050565b600080600060608486031215612f3e57612f3d612c83565b5b6000612f4c86828701612ed0565b9350506020612f5d86828701612ed0565b9250506040612f6e86828701612e1b565b9150509250925092565b600080fd5b600080fd5b7f4e487b7100000000000000000000000000000000000000000000000000000000600052604160045260246000fd5b612fba82612d8e565b810181811067ffffffffffffffff82111715612fd957612fd8612f82565b5b80604052505050565b6000612fec612c79565b9050612ff88282612fb1565b919050565b600067ffffffffffffffff82111561301857613017612f82565b5b61302182612d8e565b9050602081019050919050565b82818337600083830152505050565b600061305061304b84612ffd565b612fe2565b90508281526020810184848401111561306c5761306b612f7d565b5b61307784828561302e565b509392505050565b600082601f83011261309457613093612f78565b5b81356130a484826020860161303d565b91505092915050565b600080600080600060a086880312156130c9576130c8612c83565b5b600086013567ffffffffffffffff8111156130e7576130e6612c88565b5b6130f38882890161307f565b955050602086013567ffffffffffffffff81111561311457613113612c88565b5b6131208882890161307f565b945050604061313188828901612e1b565b935050606061314288828901612e1b565b925050608086013567ffffffffffffffff81111561316357613162612c88565b5b61316f8882890161307f565b9150509295509295909350565b60006020828403121561319257613191612c83565b5b60006131a084828501612ed0565b91505092915050565b6131b281612dfa565b82525050565b60006020820190506131cd60008301846131a9565b92915050565b6131dc81612d12565b81146131e757600080fd5b50565b6000813590506131f9816131d3565b92915050565b6000806040838503121561321657613215612c83565b5b600061322485828601612ed0565b9250506020613235858286016131ea565b9150509250929050565b600067ffffffffffffffff82111561325a57613259612f82565b5b61326382612d8e565b9050602081019050919050565b600061328361327e8461323f565b612fe2565b90508281526020810184848401111561329f5761329e612f7d565b5b6132aa84828561302e565b509392505050565b600082601f8301126132c7576132c6612f78565b5b81356132d7848260208601613270565b91505092915050565b600080600080608085870312156132fa576132f9612c83565b5b600061330887828801612ed0565b945050602061331987828801612ed0565b935050604061332a87828801612e1b565b925050606085013567ffffffffffffffff81111561334b5761334a612c88565b5b613357878288016132b2565b91505092959194509250565b600082825260208201905092915050565b600061337f82612d48565b6133898185613363565b9350613399818560208601612d64565b6133a281612d8e565b840191505092915050565b6133b681612dfa565b82525050565b600060c08301600083015184820360008601526133d98282613374565b915050602083015184820360208601526133f38282613374565b915050604083015161340860408601826133ad565b50606083015161341b60608601826133ad565b50608083015184820360808601526134338282613374565b91505060a083015161344860a08601826133ad565b508091505092915050565b6000602082019050818103600083015261346d81846133bc565b905092915050565b600081519050919050565b600082825260208201905092915050565b6000819050602082019050919050565b600060c08301600083015184820360008601526134be8282613374565b915050602083015184820360208601526134d88282613374565b91505060408301516134ed60408601826133ad565b50606083015161350060608601826133ad565b50608083015184820360808601526135188282613374565b91505060a083015161352d60a08601826133ad565b508091505092915050565b600061354483836134a1565b905092915050565b6000602082019050919050565b600061356482613475565b61356e8185613480565b93508360208202850161358085613491565b8060005b858110156135bc578484038952815161359d8582613538565b94506135a88361354c565b925060208a01995050600181019050613584565b50829750879550505050505092915050565b600060208201905081810360008301526135e88184613559565b905092915050565b6000806040838503121561360757613606612c83565b5b600061361585828601612ed0565b925050602061362685828601612ed0565b9150509250929050565b60008060008060008060c0878903121561364d5761364c612c83565b5b600061365b89828a01612e1b565b965050602087013567ffffffffffffffff81111561367c5761367b612c88565b5b61368889828a0161307f565b955050604087013567ffffffffffffffff8111156136a9576136a8612c88565b5b6136b589828a0161307f565b94505060606136c689828a01612e1b565b93505060806136d789828a01612e1b565b92505060a087013567ffffffffffffffff8111156136f8576136f7612c88565b5b61370489828a0161307f565b9150509295509295509295565b7f4e487b7100000000000000000000000000000000000000000000000000000000600052602260045260246000fd5b6000600282049050600182168061375857607f821691505b60208210810361376b5761376a613711565b5b50919050565b60006060820190506137866000830186612e8f565b61379360208301856131a9565b6137a06040830184612e8f565b949350505050565b7f4e616d6520726571756972656400000000000000000000000000000000000000600082015250565b60006137de600d83612d53565b91506137e9826137a8565b602082019050919050565b6000602082019050818103600083015261380d816137d1565b9050919050565b7f5072696365207265717569726564000000000000000000000000000000000000600082015250565b600061384a600e83612d53565b915061385582613814565b602082019050919050565b600060208201905081810360008301526138798161383d565b9050919050565b7f4465736372697074696f6e207265717569726564000000000000000000000000600082015250565b60006138b6601483612d53565b91506138c182613880565b602082019050919050565b600060208201905081810360008301526138e5816138a9565b9050919050565b7f5175616e74697479207265717569726564000000000000000000000000000000600082015250565b6000613922601183612d53565b915061392d826138ec565b602082019050919050565b6000602082019050818103600083015261395181613915565b9050919050565b7f49504653204c696e6b2072657175697265640000000000000000000000000000600082015250565b600061398e601283612d53565b915061399982613958565b602082019050919050565b600060208201905081810360008301526139bd81613981565b9050919050565b60008190508160005260206000209050919050565b60006020601f8301049050919050565b600082821b905092915050565b600060088302613a267fffffffffffffffffffffffffffffffffffffffffffffffffffffffffffffffff826139e9565b613a3086836139e9565b95508019841693508086168417925050509392505050565b6000819050919050565b6000613a6d613a68613a6384612dfa565b613a48565b612dfa565b9050919050565b6000819050919050565b613a8783613a52565b613a9b613a9382613a74565b8484546139f6565b825550505050565b600090565b613ab0613aa3565b613abb818484613a7e565b505050565b5b81811015613adf57613ad4600082613aa8565b600181019050613ac1565b5050565b601f821115613b2457613af5816139c4565b613afe846139d9565b81016020851015613b0d578190505b613b21613b19856139d9565b830182613ac0565b50505b505050565b600082821c905092915050565b6000613b4760001984600802613b29565b1980831691505092915050565b6000613b608383613b36565b9150826002028217905092915050565b613b7982612d48565b67ffffffffffffffff811115613b9257613b91612f82565b5b613b9c8254613740565b613ba7828285613ae3565b600060209050601f831160018114613bda5760008415613bc8578287015190505b613bd28582613b54565b865550613c3a565b601f198416613be8866139c4565b60005b82811015613c1057848901518255600182019150602085019450602081019050613beb565b86831015613c2d5784890151613c29601f891682613b36565b8355505b6001600288020188555050505b505050505050565b60006080820190508181036000830152613c5c8187612d9f565b9050613c6b60208301866131a9565b613c7860408301856131a9565b8181036060830152613c8a8184612d9f565b905095945050505050565b7f496e76616c69642070726f647563742069640000000000000000000000000000600082015250565b6000613ccb601283612d53565b9150613cd682613c95565b602082019050919050565b60006020820190508181036000830152613cfa81613cbe565b9050919050565b7f4e487b7100000000000000000000000000000000000000000000000000000000600052603260045260246000fd5b7f50726f64756374206f7574206f662073746f636b000000000000000000000000600082015250565b6000613d66601483612d53565b9150613d7182613d30565b602082019050919050565b60006020820190508181036000830152613d9581613d59565b9050919050565b7f496e73756666696369656e742066756e64730000000000000000000000000000600082015250565b6000613dd2601283612d53565b9150613ddd82613d9c565b602082019050919050565b60006020820190508181036000830152613e0181613dc5565b9050919050565b7f4e487b7100000000000000000000000000000000000000000000000000000000600052601160045260246000fd5b6000613e4282612dfa565b9150613e4d83612dfa565b9250828201905080821115613e6557613e64613e08565b5b92915050565b6000613e7682612dfa565b9150613e8183612dfa565b9250828203905081811115613e9957613e98613e08565b5b92915050565b6000604082019050613eb460008301856131a9565b613ec16020830184612e8f565b9392505050565b600081905092915050565b6000613ede82612d48565b613ee88185613ec8565b9350613ef8818560208601612d64565b80840191505092915050565b6000613f108285613ed3565b9150613f1c8284613ed3565b91508190509392505050565b600081549050613f3781613740565b9050919050565b818103613f4c575050614024565b613f5582613f28565b67ffffffffffffffff811115613f6e57613f6d612f82565b5b613f788254613740565b613f83828285613ae3565b6000601f831160018114613fb25760008415613fa0578287015490505b613faa8582613b54565b86555061401d565b601f198416613fc0876139c4565b9650613fcb866139c4565b60005b82811015613ff357848901548255600182019150600185019450602081019050613fce565b86831015614010578489015461400c601f891682613b36565b8355505b6001600288020188555050505b5050505050505b565b7f4e487b7100000000000000000000000000000000000000000000000000000000600052603160045260246000fd5b600081519050919050565b600082825260208201905092915050565b600061407c82614055565b6140868185614060565b9350614096818560208601612d64565b61409f81612d8e565b840191505092915050565b60006080820190506140bf6000830187612e8f565b6140cc6020830186612e8f565b6140d960408301856131a9565b81810360608301526140eb8184614071565b905095945050505050565b60008151905061410581612cb9565b92915050565b60006020828403121561412157614120612c83565b5b600061412f848285016140f6565b91505092915050565b600060408201905061414d6000830185612e8f565b61415a60208301846131a9565b9392505050565b7f4e487b7100000000000000000000000000000000000000000000000000000000600052601260045260246000fdfea2646970667358221220600026797c60bb8bb902ac60ce147e1c584d2209596058d7334b1d6dc853077d64736f6c63430008140033",
    "linkReferences": {},
    "deployedLinkReferences": {}
}